:020000040800F2
:10000000180D0020890100080B250008B51600080E
:1000100009250008EF020008E92B00080000000095
:100020000000000000000000000000007F2A00081F
:10003000F1020008000000007D2A0008812A000863
:10004000A3010008A3010008A3010008A301000800
:10005000A3010008A3010008A3010008A3010008F0
:10006000A3010008A3010008A3010008A3010008E0
:10007000A3010008A3010008A3010008A3010008D0
:10008000A3010008A3010008A3010008A3010008C0
:10009000A3010008A3010008A3010008A3010008B0
:1000A000A3010008A3010008A3010008A3010008A0
:1000B000A3010008A3010008A3010008B916000865
:1000C000A3010008A3010008A3010008A301000880
:1000D000A3010008A3010008A3010008A301000870
:1000E000A3010008A3010008A301000800F002F822
:1000F00000F03AF80AA090E8000C82448344AAF188
:100100000107DA4501D100F02FF8AFF2090EBAE885
:100110000F0013F0010F18BFFB1A43F0010318473B
:100120000442000024420000103A24BF78C878C17D
:10013000FAD8520724BF30C830C144BF04680C60ED
:10014000704700000023002400250026103A28BF35
:1001500078C1FBD8520728BF30C148BF0B60704739
:100160001FB51FBD10B510BD00F08AF81146FFF78E
:10017000F7FF02F0ADFD00F0A8F803B4FFF7F2FFBF
:1001800003BC00F0ADF8000009488047094800476B
:10019000FEE7FEE7FEE7FEE7FEE7FEE7FEE7FEE737
:1001A000FEE7FEE704480549054A064B7047000094
:1001B000E92A0008ED00000818070020180D0020AB
:1001C000180900201809002010B5203AC0F00B8053
:1001D000B1E81850203AA0E81850B1E81850A0E84B
:1001E0001850BFF4F5AF5FEA027C24BFB1E81850A5
:1001F000A0E8185044BF18C918C0BDE810405FEA15
:10020000827C24BF51F8043B40F8043B08BF704790
:10021000D20728BF31F8023B48BF11F8012B28BF95
:1002200020F8023B48BF00F8012B70474FF0000256
:1002300000B5134694469646203922BFA0E80C50DC
:10024000A0E80C50B1F12001BFF4F7AF090728BFB7
:10025000A0E80C5048BF0CC05DF804EB890028BF33
:1002600040F8042B08BF704748BF20F8022B11F05C
:10027000804F18BF00F8012B7047704770477047D8
:10028000754600F029F8AE4605006946534620F051
:100290000700854618B020B5FFF784FFBDE8204071
:1002A0004FF000064FF000074FF000084FF0000B32
:1002B00021F00701AC46ACE8C009ACE8C009ACE8E5
:1002C000C009ACE8C0098D4670470446AFF3008012
:1002D0002046FFF752FF000000487047B806002094
:1002E00001491820ABBEFEE7260002007047FEE77A
:1002F0007047FEE710B590F821100024022903D0C2
:100300000421816301243DE001680A6822F00E02A5
:100310000A6001680A6822F001020A601A4A01684C
:10032000914201D1012121E0174A1432914201D1B9
:1003300010211BE0144A2832914201D1891515E0A1
:10034000114A3C32914201D189140FE00E4A5032D9
:10035000914202D14FF4803108E00B4A643291425D
:1003600002D14FF4801101E04FF08071064A083A43
:100370005160012180F82110002180F82010416B8C
:1003800001B18847204610BD0800024090F82100C6
:100390007047000070B5044600F006F90546601C81
:1003A00002D004480078044400F0FEF8401BA0424C
:1003B000FAD370BD200000202DE9F84FDFF8A4919A
:1003C000002409F1040A0AF1040B23464FF00F0838
:1003D0000BF1040EBEE00127A7403A40BA4272D1A9
:1003E000DFF884C14D68A5EB0C0665452BD00DDC0C
:1003F000032D34D005DC35B3012D19D0022D2FD1BA
:100400001BE0112D16D0122D2AD119E0B6F5881F48
:1004100019D006DCB6F5803F15D0B6F5801F1FD188
:1004200011E0B6F5001F0ED0B6F5041F18D10AE092
:10043000CB6815E0CB681B1D12E0CB6808330FE0DA
:10044000CB680C330CE08B682BB1012B4FF0080309
:1004500003D0476104E0042302E0076100E00023C9
:10046000FF2A01D8064601E000F104064FEA8405A0
:1004700001D9A5F12005376808FA05FC27EA0C0721
:1004800003FA05F547EA050737604D68ED0060D5CA
:10049000364DAE6946F00106AE61AD6924F0030643
:1004A00005F001050095324D7719BE68A5072D0F9F
:1004B00008FA05FC26EA0C06DFF8B8C0604503D14F
:1004C0004FF0000C17E044E0DFF8ACC0604502D10B
:1004D0004FF0010C0FE0DFF8A4C0604502D14FF0EF
:1004E000020C08E0DFF898C0604502D14FF0030C21
:1004F00001E04FF0040C0CFA05FC4CEA060CC7F8BE
:1005000008C04D68D9F80060ED034D4601D516438B
:1005100000E096432E604D68DAF80060AD03554662
:1005200001D5164300E096432E604D68DBF800606D
:10053000ED025D4601D5164300E096432E604D68FE
:10054000DEF80060AD02754601D5164300E0964323
:100550002E60641C0A6832FA04F57FF43CAFBDE8F3
:10056000F88F00000004014000001110001002404C
:100570000000014000080140000C01400010014053
:10058000001401408068084000D001207047C26814
:1005900021EA02030A4043EA0241016170470AB1BD
:1005A000016170470904FBE701488068704700005B
:1005B00020000020704770472DE9F04702680021B5
:1005C0005368C66A90F83E4090F83D50102C12D007
:1005D000402C10D0046C002C7DD05469E443A60755
:1005E0007AD4DE43B60577D4036C03B19169BDE8D4
:1005F000F04701F011BD976951694FF42A0CC943C6
:100600005FEAC1784FF02A4904D066452AD04E45AA
:1006100028D010E0DE43B6050DD4C16A614501D192
:10062000012103E0C16A494501D10821C162BDE849
:10063000F04701F089BB0E0716D4DE43B60513D48C
:10064000416CC9B21161416B09B1896A29B9816BE9
:10065000002907D0896A002904D00068416841F464
:1006600000614160BDE8F0878E0706D4DE43B60521
:1006700003D4BDE8F04701F0BBBAFE4352687607E9
:100680004FEA02521DD4002AECDB0A0608D4DA43F2
:10069000520505D4490705D5BDE8F04701F04EBA2B
:1006A0004907DFD4D9438905DCD4212D05D0402C5E
:1006B000D8D1BDE8F04701F08CBBBDE8F04701F0B0
:1006C000FDB9002ACEDB4A060BD4DA43520508D422
:1006D000490708D501E00DE00EE0BDE8F04701F064
:1006E00079B94907BED4D9438905BBD4BDE8F047E1
:1006F00001F007B9916970E7E10606D4D94389058D
:1007000003D4BDE8F04701F0ABBC2826212D27D04B
:10071000292D25D0610655D4D943490552D4610706
:1007200052D590F83D10438D002B9BD01269436A3F
:100730001A70426A521C4262428D521E4285428D9C
:10074000002A8FD12A298DD101684A6822F480625B
:100750004A602221016380F83D6000F0E5FB81E7FB
:10076000210623D4D943490520D4610720D590F828
:100770003D10438D002BF2D0436A1B781361426A0F
:10078000521C4262428D521E4285428D002AE6D1A1
:100790002929E4D101684A6822F480624A60212153
:1007A000016380F83D6000F0C0FB5BE76107D6D4D1
:1007B000D9438905D3D4418D0029D0D0416A097825
:1007C00011610AE06107CAD4D9438905C7D4418DB4
:1007D0000029C4D01169426A1170416A491C416202
:1007E000418D491E41853DE77047000070B504000A
:1007F00025D094F83D00002520B984F83C502046CF
:1008000000F046FB242084F83D002068016821F0B8
:10081000010101602068016841F400410160206825
:10082000016821F40041016000F0E0FC4D4B61687B
:10083000994201D84C4900E04C49884201D201203C
:1008400070BD4B492268B0FBF1F1566826F03F06B7
:100850000E43566062689A4206D94FF4967251432D
:100860004FF47A72B1FBF2F12268491C166A26F045
:100870003F06314311626168994210D84900401E19
:10088000B0FBF1F2521CC2F30B02042A01D2042085
:1008900022E0B0FBF1F0401CC0F30B001CE0A268AA
:1008A000F2B301EBC10303EB0116431EB3FBF6F3F6
:1008B0005B1C43F480431B0549D092B301EBC1029A
:1008C00002EB0111401EB0FBF1F0401CC0F30B0025
:1008D00040F4804040F400402168CA694CF6FF7340
:1008E0009A431043C861D4E90710014320680268A5
:1008F00022F0C00211430160D4E9030101432068E2
:10090000826848F2FF339A4311438160D4E90510AD
:1009100001432068C26822F0FF021143C16001E078
:100920000EE016E02068016841F0010101602564D5
:10093000202084F83D00256384F83E50002070BDDF
:1009400001EB4106431EB3FBF6F35B1CB3E701204A
:10095000C2E701EB4101401EB0FBF1F0401CC0F3C7
:100960000B00B7E7A086010080841E0000093D004F
:1009700040420F0070477047704770477CB52C4D60
:10098000A878042821D000260124AA1D03282AD0F3
:10099000022833D0911F012849793BD0002813D178
:1009A0002448802200EBC110CDE90002012340223F
:1009B0007821214800F002FA6879401CC0B26871C1
:1009C000072800D96E71AC707CBD00218D2001F02C
:1009D00003FF0021102001F0FFFEBDE87C40002154
:1009E000AE2001F0F9BEAE71CDE900240123002252
:1009F0007821114800F0E2F9AE707CBD1020A8719A
:100A0000CDE900240123002278210B4800F0D6F91B
:100A100003200AE0B031A971CDE9002401230022AE
:100A20007821054800F0CAF90220A8707CBD0000BA
:100A300018000020B8020020300000202DE9FF4FF0
:100A400083B00026DDE910799A4693460446DDF826
:100A500048800096FFF7A8FD054694F83D00202841
:100A60007CD11923012285492046009501F0CCFB59
:100A70000028F5D194F83C0001286FD0012084F8BB
:100A80003C0020680168C90703D1016841F00101F9
:100A900001602068016821F400610160222084F86F
:100AA0003D00402084F83E0026646762A4F82A9046
:100AB000608D20857248E062CDE9008553465A4634
:100AC0002046049901F0D6F900287DD1208DDFF869
:100AD000B491202768B1012814D002282068016849
:100AE0001ED041F4806101602068416980690090F6
:100AF000B6E02068416981690091016841F40071A4
:100B00000160ADE02068016821F48061016072B687
:100B10002068416981690091016841F400710AE02F
:100B200041F40061016072B62068416981690091F9
:100B3000016821F48061016062B691E0032868D801
:100B400001280CD0022843464FF0000249462046B7
:100B500000950FD001F058FBB0BB10E08BE02A46A7
:100B60004146204601F0D0FB70BB20680069616AF5
:100B700008706CE001F048FB30BB72B634E02068CE
:100B8000016821F48061016072B620680069616AC1
:100B90000870606A401C6062208D401E2085608D58
:100BA000401E6085384846F2A8110068B0FBF1F09D
:100BB000C0EBC00000EB80000090401E009008D009
:100BC00020684069C04300E029E040070CD5009848
:100BD000F3E744F8306F6773A673206940F0200094
:100BE000206162B626731AE02068016841F4007142
:100BF000016020680069616A0870606A401C606278
:100C0000218D491E2185618D491E618562B621684D
:100C10001BE02A464146204601F076FB18B1012030
:100C200007B0BDE8F08F20680069616A0870606AEB
:100C3000401C6062218D491E2185618D491E6185A0
:100C400021684A69D24352070AD409690170606A6F
:100C5000401C6062208D401E2085608D401E608596
:100C6000208D00287FF46AAF84F83D7084F83E60E0
:100C700084F83C60D4E70220D2E7000002001000B4
:100C80000000FFFF040001002C0000202DE9FF4FB1
:100C900083B09A46DDE9119793460446DDF840801B
:100CA000FFF782FC054694F83D0020287FD11923E8
:100CB000012240492046009501F0A6FA002876D18D
:100CC00094F83C00012872D0012084F83C00206890
:100CD0000168C90703D1016841F001010160206882
:100CE000016821F400610160212084F83D0040206A
:100CF00084F83E0000262664C4F82480A4F82A90D4
:100D0000608D20852C48E062CDE9007553465A4637
:100D10002046049901F02CF970B930E02A46394692
:100D2000204601F026FB58B1206C042804D120682D
:100D3000016841F400710160012007B0BDE8F08F47
:100D4000606A216800780861626A521C6262208DC4
:100D5000401E80B22085618D491E618521684B69E6
:100D6000DB435B070BD468B110780861606A401CF4
:100D70006062208D401E2085608D401E6085208D24
:100D80000028CBD12A463946204601F017FA002820
:100D9000CAD154F83D0B016841F400710160202074
:100DA00004F81E09E67766770020C6E7FFE7022011
:100DB000C3E70000020010000000FFFFF8B50025A7
:100DC000DDE90676009590F83D40202C59D12E4C57
:100DD00046F2A81C2468B4FBFCF404EBC40C0CEB36
:100DE00004140094641E009406D00468A469E443CB
:100DF000A4070DD4009CF5E740F8305F2021417333
:100E00008573016941F02001016105730120F8BD7E
:100E100090F83C40012C34D0012480F83C40046818
:100E2000D4F800C05FEACC7C05D1D4F800C04CF007
:100E3000010CC4F800C00468D4F800C02CF4006CA5
:100E4000C4F800C0212480F83D40402480F83E4092
:100E5000056447624685448D04850C4CC462416438
:100E60008264C364056501680A6842F480720A609E
:100E700080F83C500068416841F4E0614160002026
:100E8000F8BD0220F8BD00002C0000200000FFFF8C
:100E900030B585B0002100910191029103911E4D62
:100EA00001681E4C122203231D48A94216D1A169D4
:100EB00041F00801A161A169039301F008010491C7
:100EC000C021CDE900126946FFF776FAE06940F4E7
:100ED0000010E061E06900F4001019E0114DA94232
:100EE00017D1A16941F00801A161A169039301F043
:100EF000080104914FF44061CDE900126946FFF703
:100F00005BFAE06940F48000E061E06900F4800091
:100F1000049005B030BD00000054004000100240B5
:100F2000000C01400058004070477047024881683B
:100F3000027811448160704720000020074810B5F6
:100F4000016841F010010160032000F075F80020F5
:100F500000F006F800F024F8002010BD0020024048
:100F600070B50D4D04464FF47A712878B1FBF0F05E
:100F70000A490968B1FBF0F000F01BFB48B9102CDE
:100F800007D200222146501E00F036F800206C6087
:100F900070BD012070BD0000200000202C0000204A
:100FA0000C4808B5816941F001018161816901F056
:100FB00001010091C16941F08051C161C0690649D8
:100FC00000F080500090486820F0E06040F0007031
:100FD000486008BD0010024000000140002809DB05
:100FE00000F01F02012191404009800000F1E02043
:100FF000C0F8001170470000F0B40E4B1B68C3F33B
:101000000223C3F10704042C00D904241D1D072D5D
:1010100001D2002300E0DB1E012606FA04F56D1E56
:101020000D409D409E40761E164045EA0601F0BCEC
:1010300001F0DBBD0CED00E0064A00F0070110688E
:101040004FF6FF03184040EA0120034908431060AF
:10105000704700000CED00E00000FA0590FAA0F0E7
:10106000044AB0FA80F002EB80000021C0F8801042
:101070007047000000000E4290FAA0F0044AB0FA57
:1010800080F002EB80000121C0F880107047000062
:1010900000000E420548016841F002010160044869
:1010A000016841F00401016030BF704700700040EA
:1010B00010ED00E02DE9F0470D46040067D0DFF8A1
:1010C0001881D8F8000000F00700A8420CD2D8F828
:1010D000001021F007012943C8F80010D8F80000DB
:1010E00000F00700A84252D120683C4E810712D57B
:1010F000400703D5706840F4E06070602078000716
:1011000003D5706840F4605070607068A16820F08A
:10111000F000084370602078C00727D0606801287D
:1011200010D03168022810D0890700292FDA7168A1
:1011300021F0030101437160FFF736FA074641F2DF
:1011400088390CE031688903EFE78901EDE7FFF7A3
:101150002BFAC11B494502D90320BDE8F08770680E
:10116000616800F00C00B0EB810FF0D1D8F80010EE
:10117000404601F00701A9420BD9016821F007019F
:1011800029430160006800F00700A84201D0012057
:10119000E3E72078400705D57068E16820F4E06057
:1011A000084370602078000706D57068216920F434
:1011B000605040EAC100706000F038F87168084A79
:1011C000C1F30311515CC840064908600648006835
:1011D000FFF7C6FE0020C0E70020024000100240DA
:1011E0000A4300082C000020240000200448054980
:1011F00000684968044AC1F30221515CC840704745
:101200002C000020001002401A4300080448054941
:1012100000684968044AC1F3C221515CC840704764
:101220002C000020001002401A43000812A085B0D4
:101230000FC88DE80F0014A0144B00680490596883
:10124000134801F00C02042A10D0082A0ED1C1F371
:101250008342C9031DF802000AD5596804AAC1F3E4
:101260004041515C0A4A5043B0FBF1F005B0704771
:1012700008494843FAE70000020304050607080985
:101280000A0B0C0D0E0F101001020000001002409E
:1012900000127A0000093D002DE9F84F04006FD0DC
:1012A0002078BE4DC00747D06868C0F38100012890
:1012B00007D06868C0F38100022809D16868C003BC
:1012C00006D52868800337D560680028E7D033E06A
:1012D0006068B0F5803F0BD010B1B0F5A02F11D0F1
:1012E000286820F480302860286820F4802002E0FC
:1012F000286840F480302860606888B1FFF754F9AE
:10130000064609E0286840F480202860F0E7FFF7EF
:101310004BF9801B642873D828688003F7D50BE04D
:10132000FFF742F9064604E0FFF73EF9801B642808
:10133000F1D828688003F7D42078DFF8648280072A
:101340004FF0010A4FF0000939D5686810F00C0F12
:1013500007D06868C0F38100022809D16868C0031B
:1013600006D42868800714D52069012808D110E028
:101370002069B0B1C8F800A0FFF716F9064605E0ED
:1013800007E1FFF711F9801B0228C4D828688007FD
:10139000F7D52868616920F0F80040EAC1002860AC
:1013A0000DE0C8F80090FFF7FFF8064604E0FFF7ED
:1013B000FBF8801B022823D828688007F7D4207800
:1013C00000072CD57748A169D9B1C0F800A0FFF774
:1013D000EBF8064604E0FFF7E7F8801B02280FD879
:1013E000686A8007F7D570484FF4FA510068B0FB7F
:1013F000F1F0009000BF0098411E0091FAD20EE07B
:101400007CE0C0F80090FFF7CFF8064604E0FFF755
:10141000CBF8801B022871D8686A8007F7D420783F
:1014200040075BD5E8690027C00008D4E86940F0B0
:101430008050E861E869012700F0805000905B4827
:101440000168C90511D40168834641F480710160C7
:10145000FFF7AAF8064604E0FFF7A6F8801B642809
:101460004CD8DBF80000C005F6D5E06801280AD0AA
:1014700008B1052813D0286A20F001002862286AE4
:1014800020F0040002E0286A40F001002862E068D1
:1014900041F2883B88B1FFF787F8064609E0286AE1
:1014A00040F004002862EEE7FFF77EF8811B594503
:1014B0005BD8286A8007F7D50BE0FFF775F806467A
:1014C00004E0FFF771F8811B59454ED8286A800760
:1014D000F7D41FB1E86920F08050E861E069A8B353
:1014E0006968C1F38101022946D00228484606D026
:1014F000C8F86000FFF758F8044639E035E0474681
:10150000C8F86000FFF750F8064604E0FFF74CF813
:10151000801B022829D828688001F7D4206AB0F5FA
:10152000803F05D16868A16820F4003008436860F6
:10153000D4E908010843696821F47411084368601C
:10154000C7F860A0FFF730F8044605E023E0FFF796
:101550002BF8001B022808D828688001F7D51AE06C
:10156000FFF722F8001B022802D90320BDE8F88FFC
:1015700028688001F4D40EE00128F7D06868226A58
:1015800000F48031914204D1616A00F47010884205
:1015900001D00120EAE70020E8E700000010024047
:1015A00000004242800442422C00002000700040B3
:1015B000704710B5401EB0F1807F01D3012010BDEF
:1015C0004FF0E02460610F21601701F00EFB002056
:1015D000A06107202061002010BD10B5FFF7E8FFD3
:1015E00010BD70B5040004D094F83D00002510B182
:1015F00006E0012070BD84F83C50204600F022F83F
:10160000242084F83D002068C16821F40051C160A5
:10161000204601F08DFA2068016921F490410161B2
:101620002068416921F02A0141612068C16841F4C4
:101630000051C1602564202084F83D0084F83E00FC
:10164000002070BD30B585B0002400940194029450
:10165000039400681449884224D11448816941F4F4
:1016600080418161816901F480410491816941F087
:101670000401816180690E4D00F0040004904FF474
:1016800000700090022001900320039069462846D4
:10169000FEF792FE2815CDE900046946284602941B
:1016A000FEF78AFE05B030BD003801400010024050
:1016B00000080140FEE700000148FEF77DBF000082
:1016C0003000002038B5406A002290F83D302A49A9
:1016D0000C6846F2A811B4FBF1F1C1EBC10101EBBA
:1016E0008101009139B1491E00910168096889059D
:1016F00005D50099F6E7016C41F020010164416BCA
:1017000001B18A62816B01B18A6201680C6824F4BC
:1017100080640C604285416B01B14A63816B01B109
:101720004A6301680C6824F001040C6090F83D40A5
:101730002021602C0AD0282434EA03030ED080F83C
:101740003D1080F83E20FFF74FF838BD80F83D107F
:1017500080F83E200264FEF72DFF38BD01680B685B
:1017600043F001030B6001680B6843F480630B6076
:10177000026380F83D40E6E72C00002070B5044687
:1017800090F83D0094F83E10102901D0402906D170
:10179000222804D121680A6822F400620A60282104
:1017A00031EA00024FF000054FF0200626D02168F4
:1017B0004968090505D4602803D084F83D6084F8A1
:1017C0003E50256320684168090537D5416821F4FA
:1017D00000614160606B3D4990F82120012A11D0E1
:1017E0004163606BFEF786FD38B32068016821F025
:1017F0000101016084F83D60606B1CE0256384F8A2
:101800003D10DFE7A06B4163A06BFEF773FDA0B155
:1018100020684169C943490605D40069616A0870B6
:10182000606A401C60622068016821F0010101606B
:1018300084F83D60A06B416B884710E094F83D1040
:10184000602910D04169C943490605D40069616A1D
:101850000870606A401C60622046FEF7C5FF206C7D
:10186000C1071CD115E084F83D6025644169C94376
:10187000490605D40069616A0870606A401C6062AC
:101880002068016821F0010101602046FEF792FE08
:10189000E5E7810703D4410701D4000704D5206898
:1018A000416821F4E061416094F83D00216C4907F2
:1018B0000BD5282809D10648E062256384F83D60ED
:1018C00084F83E502046FFF755F870BDC516000855
:1018D0000000FFFF01684A69D24352050FD46FF43C
:1018E00080624A61002140F8301F202242738173D8
:1018F000026942F004020261017301207047002076
:10190000704710B5C26A438D0168042B06D0438D21
:10191000032B08D0438D022B1DD012E04A6822F41D
:1019200080624A600CE04B6823F480634B60042AB9
:1019300006D0022A04D001680A6822F480620A6094
:1019400001680969426A1170416A491C4162418D0E
:10195000491E418510BD012A30D0102A2ED0042AFC
:1019600030D0022A2ED00A6842F400720A60016860
:101970000969426A1170416A491C4162428D521ED6
:101980004285026812690A70416A491C4162418DB0
:10199000491E418501684A6822F440724A6020214C
:1019A00080F83D1090F83E200021402A80F83E103B
:1019B0000CD012210163FEF7DEFF10BD0A6822F48D
:1019C0008062D3E70A6842F48062CFE70163FEF7E2
:1019D000D4FF10BD38B590F83D10222914D1418DA7
:1019E000032912D901680969426A1170416A491CC8
:1019F0004162418D491E4185418D032904D1006812
:101A0000416821F48061416038BDC26A022AFBD07E
:101A1000012901D00029F7D1274946F2A812002355
:101A200009682024B1FBF2F101EB8101009101680A
:101A3000009A521E009222D00A689205F8D40A68D1
:101A400022F480620A6001684A6822F4E0624A6017
:101A500001680969426A1170416A491C4162418DFD
:101A6000491E418580F83D4090F83E1080F83E3098
:101A700040291DD012210163FEF77DFF38BD026CA5
:101A800042F0200202644A6822F4E0624A6001687F
:101A90000969426A1170416A491C4162418D491EBF
:101AA000418580F83D4080F83E30FEF79DFE38BD10
:101AB0000363FEF762FF38BD2C00002010B5C16A39
:101AC00090F83D20212A0BD1428D52B1416A026823
:101AD00009781161416A491C4162418D491E418565
:101AE00010BD20230022082912D0202910D011F582
:101AF000803F0DD001684C6824F4E0644C601121F3
:101B0000016380F83E2080F83D30FEF735FF10BDC0
:101B100001684C6824F4E0644C6001680C6844F48B
:101B200000740C60026380F83D3090F83E1080F83D
:101B30003E204029E9D1FEF721FF10BD10B590F8F5
:101B40003D2090F83E30C16A048DB4B1212A03D003
:101B5000402B11D1222A0FD1418DE9B390F83E10CC
:101B6000402940D0416A026809781161416A491CE4
:101B70004162418D491E418510BD212AE8D12023B3
:101B80000022082912D0202910D011F5803F0DD055
:101B900001684C6824F4E0644C601121016380F812
:101BA0003E2080F83D30FEF7E7FE10BD01684C682E
:101BB00024F4E0644C6001680C6844F400740C6028
:101BC000026380F83D3090F83E1080F83E204029B6
:101BD000E9D1FEF7D3FE10BDFFE70068416821F4AC
:101BE00080614160F7E7BDE8104000F0F2B8000006
:101BF00078B590F83E40C26A056B90F83D600023CE
:101C00000168222E73D1066D0EB9402C6FD0046D81
:101C10001CB90469B4F5404F1BD0448D94B3468D74
:101C2000484C012E20D0458D022D4DD00D6845F435
:101C300080650D6001684D682D0579D5A24273D08D
:101C4000012A71D0082A6FD0102A6DD0202A6BD0BB
:101C50006EE04A698A6900920A6842F480720A60FA
:101C6000016D491C016578BDA24214D10A6822F4B5
:101C700080620A6001684A68120504D50A6822F485
:101C8000806217E0FFE74A698A6900920A6842F4B5
:101C900000720A6050E0082A10D0202A0ED0122DBF
:101CA0000AD0042A03D0022A01D0102AE6D10A68F9
:101CB00042F480620A603BE0012ADFD00A6822F425
:101CC00080620A600168DEE7042A11D0022A0FD080
:101CD000102A0DD00D6845F400650D6001684D694E
:101CE0008D6900950D6825F480650D6008E025E09C
:101CF0000D6845F480650D6001684D698969009142
:101D000001684D682D0517D5A24207D0012A05D0DC
:101D1000082A03D0102A01D0202A0DD14A6842F4A3
:101D200080524A6008E0FFE74A6842F480524A6005
:101D300001684A6989690091036578BD48698869C5
:101D4000009078BD0000FFFF90F83E1040290FD0B2
:101D50000169B1F5804F18D0016DA1B3016D012962
:101D60000FD1416CF12201F4407142EAD11106E039
:101D7000016D0029416C05D0C9B241F00101006834
:101D80000161704701F0FE01F9E790F83D1021294B
:101D9000416C09D0C9B241F0010102681161416B87
:101DA00029B1896A49B902E001F0FE01F5E7816BCA
:101DB0000029E6D0896A0029E3D00068416841F42F
:101DC000006141607047FFE7416CF02201F440710F
:101DD000CBE710B590F83D10026D22B3026D012AD9
:101DE0002FD0026D022A1DD122292FD0428D0AB197
:101DF000212933D0428D002A14D1212912D1016822
:101E00004A6822F4E0624A6001680A6842F400729B
:101E10000A6000210163202280F83D2080F83E10F6
:101E2000FEF7ACFD10BDC16C0129816C02D0C1F37D
:101E3000072108E00268C9B21161016D891C0165C2
:101E400010BD816CC9B20268116104E001680A68C2
:101E500042F480720A60016D491CF0E7416A026831
:101E600009781161416A491C4162418D491E4185D1
:101E700010BD00002DE9F84F0446006889460B9E0E
:101E800001689846174641F4806101602068016846
:101E900041F48071016000964FF0011B0022594609
:101EA00020460A9B00F0B0F94FF4007A40B1206858
:101EB0000068C00501D5C4F840A00320BDE8F88F34
:101EC000216809F0FE0008613346284920460A9A35
:101ED00000F0CEF9F0BB206841698069009032467D
:101EE00020460A9900F045FA40B1206C04283AD106
:101EF0002068016841F40071016034E0FDB2B8F17E
:101F0000010F09D02168380A0861324620460A9933
:101F100000F02FFA0028E8D12068056132462046FB
:101F20000A9900F026FA0028DFD12068016841F400
:101F30008071016000960022594620460A9B00F0FD
:101F400063F90028B3D1216809F0FF0040F00100D7
:101F5000086100E007E03346044920460A9A00F091
:101F600087F90028AAD00120A8E70000020001009C
:101F70002DE9F843044600680D46DDE9089701683D
:101F80009846164641F4807101604B4600224FF09E
:101F900001112046009700F037F948B12068006829
:101FA000C00502D54FF4007020640320BDE8F8831B
:101FB000216805F0FE0008613B464A461549204667
:101FC00000F056F988B920684169806900903A4666
:101FD0004946204600F0CDF948B1206C042804D1D0
:101FE0002068016841F4007101600120DEE7F5B26C
:101FF000B8F1010F09D02168300A08613A46494614
:10200000204600F0B6F90028E7D1206805610020DD
:10201000CCE700000200010038B50D4690F83D20E5
:1020200000212824944302680B4605D05169916928
:10203000009180F83C3038BD546824F480645460CA
:10204000EA43540700D50121120601D5828900E038
:10205000028B80F83C3092B2FEF7ADFA38BD00003A
:10206000F8B590F83D5004460068416821F4E061FD
:1020700041602068002641690091016841F001013A
:1020800001602068016821F4806101602068416876
:10209000090520D5474F222D48D02A2D46D0616B07
:1020A000096849686185618D19B1216C41F00401AD
:1020B0002164416821F400614160606BFEF766F9BC
:1020C000012808D0606B4763606BFEF713F910B10D
:1020D000606B416B8847608D08B320684169C943D4
:1020E000490708D40069616A0870606A401C606230
:1020F000608D401E608520684169C943490608D447
:102100000069616A0870606A401C6062608D401EF0
:102110006085608D18B1206C40F004002064206C54
:1021200000B32046BDE8F840FFF728BBA16B096863
:1021300049686185618D19B1216C41F00401216408
:10214000416821F400614160A06BFEF71FF901288E
:10215000C1D0A06B4763A06BFEF7CCF80028BAD0C3
:10216000A06BB6E72A2D06D12663282084F83D000F
:102170002046FEF7D9FE94F83D10202028290DD0E6
:10218000216B222901D0222D07D1266384F83D003E
:1021900084F83E602046FEF7C7FEF8BD0649E162BE
:1021A000266384F83D0084F83E602046FEF7E2FB9B
:1021B000F8BD0000C51600080000FFFF70B5164608
:1021C0000D4604460DE02046FFF784FB08B10120D0
:1021D00070BD681C05D0FEF7E7F9801BA84207D840
:1021E00035B120684069C0434007ECD4002070BD81
:1021F000002044F8300F20216173A073216941F061
:10220000200121612073E2E72DE9F0471D46904649
:102210000E460446C1F30747DDF8209008E0681C2D
:1022200006D0FEF7C1F9A0EB0900A8420FD875B19E
:102230002068012F18D0806926EA00000004000CF5
:1022400014D000204045EAD00020BDE8F0870020EF
:1022500044F8300F20216173A073216941F02001FF
:10226000216120730120F0E74069E5E70120E9E7FB
:102270002DE9F047984615460E4604464FF00009F2
:102280004FF0200AC1F3074723E020684069C043AC
:10229000400515D42068016841F40071016021688F
:1022A0006FF480604861C4F8309084F83DA084F8F1
:1022B0003E90216C41F00401216484F83C901EE0C2
:1022C000681C06D0FEF770F9A0EB0800A8420AD8F7
:1022D0004DB12068012F15D0806926EA0000000466
:1022E000000C0DD0D1E744F8309F84F80DA084F89D
:1022F0000E90216941F02001216184F80C900120A9
:10230000BDE8F0874069E8E72DE9F04116460D4643
:10231000044600274FF0200817E04069C043C0067C
:102320000DD454F8301B6FF01000486144F80D7B59
:1023300004F81D89A777206A2062277717E0FEF747
:1023400033F9801BA84208D83DB120684169C943D0
:102350004906E2D40020BDE8F08144F8307F84F8DB
:102360000D80A773206940F02000206127730120B1
:10237000F1E770B516460D4604460DE02046FFF71E
:10238000A9FA08B1012070BD681C05D0FEF70CF950
:10239000801BA84207D835B120684069C0430006B9
:1023A000ECD4002070BD002044F8300F2021617370
:1023B000A073216941F0200121612073E2E7000050
:1023C00070B586B000241F480094019402940394D1
:1023D000816941F010018161816901F0100104916E
:1023E000816941F020018161816901F0200104913E
:1023F000816941F004018161816901F00401049166
:10240000816941F0080181618069012200F00800C2
:102410000D4E5503049029463046FEF7C0F80320C0
:10242000CDE9024000950125694601953046FDF74A
:10243000C3FF28038DE8310069460448FDF7BCFF5F
:1024400006B070BD0010024000100140000C0140B9
:102450000D4810B50B4901600C494FF48042C0E9AA
:1024600001120021C0E9031241618161C161016271
:10247000FEF7BCF9002803D0BDE81040FDF739BFD6
:1024800010BD00000054004030000020801A0600FB
:102490000D4810B50B4901600C494FF48042C0E96A
:1024A00001120021C0E9031241618161C161016231
:1024B000FEF79CF9002803D0BDE81040FDF719BFD6
:1024C00010BD00000058004084000020801A060063
:1024D0000C4810B50A4901604FF4E1314160002118
:1024E00081600C22C160C0E904128161C161FFF703
:1024F00078F8002803D0BDE81040FDF7FABE10BD03
:1025000000380140D8000020FEE7704770B5002574
:102510002946002000F02EF900240121002000F0BF
:102520005BF9641CE4B2802CF7D36D1CEDB2082D6E
:10253000EED370BD01490420887070471800002058
:1025400030B58FB00021AE2000F046F900210846DA
:1025500000F042F90021102000F03EF90021402057
:1025600000F03AF90021B02000F036F90021812076
:1025700000F032F90021F02000F02EF90021A12016
:1025800000F02AF90021A62000F026F90021A82059
:1025900000F022F900213F2000F01EF90021C820A0
:1025A00000F01AF90021D32000F016F900210846A6
:1025B00000F012F90021D52000F00EF90021802052
:1025C00000F00AF90021D92000F006F90021F120DD
:1025D00000F002F90021DA2000F0FEF800211220BC
:1025E00000F0FAF80021DB2000F0F6F8002130209E
:1025F00000F0F2F800218D2000F0EEF80021142008
:1026000000F0EAF80021AF2000F0E6F8FFF77EFFC7
:10261000012000F079F939A009AC0FC884E80F0057
:1026200004213A2000F0A6F8002409AD0121285D1C
:1026300000F0D2F8641CE4B20D2CF7D333A0D0E93B
:102640000010CDE90D100421792000F093F800244A
:102650000DAD0121285D00F0BFF8641CE4B2062C2A
:10266000F7D324222BA16846FDF7AEFD02214920B5
:1026700000F080F800246D460121285D00F0ACF8E0
:10268000641CE4B20B2CF7D30321492000F072F84C
:10269000002428190121C07A00F09EF8641CE4B2DD
:1026A0000B2CF6D30421492000F064F800242819EB
:1026B0000121807D00F090F8641CE4B20B2CF6D36D
:1026C00000211DA2084600F05BF821A20121002094
:1026D00000F056F820A20121212000F051F820A29C
:1026E00001213C2000F04CF81EA20121452000F001
:1026F00047F81F48FEF742F90FB030BD3E283800BA
:102700003E0A0E003E021C023E0000006333180C1D
:1027100066630000384444448800FC44444438E183
:10272000121212E100231010906007080808070039
:102730000C0A09080800000043616C6C5F4E6F775B
:102740005F596561682053747564696F000000000B
:1027500048656172740000005261746500000000F9
:10276000260000004F78696D6574727900000000E2
:1027700030000020014A107051707047180000208E
:102780002DE9F047164688460546DFF848901CE0DC
:102790002038C3B27F2D04D908F10100002500F0D4
:1027A000FF0841462846FFF7E5FF03EB43000024FE
:1027B00009EB40070121385D00F00EF8641CE4B21B
:1027C000062CF7D3AD1DEDB2761C30780028DFD192
:1027D000BDE8F0879840000803B583B061B10D49AA
:1027E0000B489DF80C204B7800EBC31308781A5463
:1027F000401C087005B000BD0121322203A88DE8FD
:1028000007000B46002278210348FEF73FFAF1E764
:10281000B802002018000020300000202DE9F84305
:1028200035A10968009101F04DF9344A344B00F0AC
:1028300055FF00F025FF0A30C6B2172E00D9172623
:10284000304A3046117900F001FB034611793046D9
:1028500000F0F6FC0746BB4201D1781CC3B2002150
:102860006D46484217EBC00404D4685C20FA04F4B7
:1028700004406C54C8000830C41A04D4685C00FAE0
:1028800004F404406C54491CC9B20329E9D3002460
:10289000A9469046C4F10700C1B2454698F8030026
:1028A000FFF768FF19F804000121FFF795FFE878AA
:1028B000C0F17F00C7B2032F00D90327002505E030
:1028C00001210020FFF788FF6D1CEDB2BD42F7D358
:1028D000641CE4B2032CDDD388F8046098F803008C
:1028E000401CC0B288F803007F2802D9002088F875
:1028F0000300BDE8F8830000FFFFFF00B81E85EB72
:1029000051B8BE3F1800002070B5034602210120D7
:10291000FFF730FF4FF0000433B3254D0121285D50
:10292000FFF75AFF641CE4B2152CF7D303210120F2
:10293000FFF720FF002428190121407DFFF74CFFFD
:10294000641CE4B2152CF6D304210120FFF712FF1A
:1029500000242819012190F82A00FFF73DFF641C8C
:10296000E4B2152CF5D370BD01210020FFF734FF30
:10297000641CE4B2152CF7D303210120FFF7FAFE03
:10298000002401210020FFF727FF641CE4B2152C6E
:10299000F7D304210120FFF7EDFE002401210020E0
:1029A000FFF71AFF641CE4B2152CF7D370BD0000CA
:1029B000C042000870B5304A545CA2F26D210E5C32
:1029C00002213046FFF7D6FE00250020012D01D858
:1029D000A10607E0A91E052903D8E10705D00620B6
:1029E00003E0A107002900DAF8200121FFF7F4FE37
:1029F0006D1CEDB20A2DE8D303213046FFF7BAFE75
:102A000000250020012D04D8A10600D50320E106F1
:102A10000AE0A91E052903D8610609D50C2007E0A4
:102A2000A10700D503206107002901DA40F0F0007A
:102A30000121FFF7D1FE6D1CEDB20A2DE1D3042177
:102A40003046FFF797FE00250020012D01D8E10652
:102A500007E0A91E052903D8210705D5182003E0A2
:102A60006107002900DA07200121FFF7B5FE6D1C80
:102A7000EDB20A2DE8D370BDFF42000870477047E1
:102A800010B5FEF753FABDE81040FEF7A6BD30B50D
:102A90008FB028216846FDF7C9FB14210AA8FDF76D
:102AA000C5FB0120010400248DE8130004904FF4BD
:102AB000E010CDE90810022507956846FEF7ECFB0B
:102AC00000B1FEE70F20CDE90A054FF48060CDE9A3
:102AD0000C4002210AA80E94FEF7ECFA002800D060
:102AE000FEE70FB030BD00000D48016841F0010164
:102AF000016041680B4A1140416001680A4A114077
:102B00000160016821F480210160416821F4FE0127
:102B100041604FF41F0181600449C00308607047A1
:102B2000001002400000FFF8FFFFF6FE08ED00E095
:102B300070B5044600680169E26821F44051114310
:102B40000161A16820690143606901432068C2688E
:102B500041F20C639A430A43C26020684169A2694A
:102B600021F44071114341611E492068884202D11D
:102B7000FEF74CFB01E0FEF739FB00EBC00101EB77
:102B80000011606864228000B1FBF0F3B3FBF2F344
:102B90006FF018067343B1FBF0F5B1FBF0F605EBEF
:102BA0008305322303EB0515B5FBF2F5B6FBF2F610
:102BB00005F0F00505EB0615B1FBF0F6B1FBF0F002
:102BC000B0FBF2F06FF01801484306EB800003EB16
:102BD0000010B0FBF2F0216800F00F00284488607C
:102BE00070BD000000380140FEE70907090E00280B
:102BF00004DB00F1E02080F80014704700F00F00C3
:102C000000F1E02080F8141D7047000030B5084C3A
:102C1000312204EBC20353F8085D44F832505D687A
:102C2000521EDD6012F0FF02F3D1C4E9000130BD95
:102C3000280100202DE9F043DFF858809946002351
:102C4000D8F800C0D8F804606746354658F83340D5
:102C5000644500D9A446BC4200D2274608EBC30411
:102C60006468B44200D92646AC4200D225465B1CBB
:102C7000DBB2322BEAD3ACEB070303800CEB07008B
:102C800040080860701B108070194108C9F80010D6
:102C9000BDE8F0832801002030B500230B4C1A4614
:102CA000194654F831502B4404EBC105491C6D689A
:102CB000C9B22A440729F4D301681944C90801603C
:102CC00041681144C908416030BD0000280100205E
:102CD00008B5FEF733F9FFF7DAFE5748C16941F04E
:102CE0008051C161C06900F0805000905348416834
:102CF000C943890703D4016841F008010160504CC1
:102D00000121A1462046FDF73DFC0128F8D0FFF740
:102D100057FBFFF79DFBFFF7BBFBFFF7D9FB00223B
:102D200001211F20FEF768F91F20FEF757F9C82080
:102D3000FDF730FBFFF704FC00F0FEF9DFF804B10B
:102D40004FF4805A4FF47A7664274FF00A085146C0
:102D50005846FDF717FC0028F9D14FF400513A48C6
:102D6000FDF715FC00F098F800F094F9054600F026
:102D70008BF90446B0FBF6F006FB1040632806D939
:102D8000B4FBF6F006FB1040B0FBF7F100E00A21BF
:102D90000020FFF70FFEB4FBF7F007FB1041B1FB7B
:102DA000F8F10120FFF706FEB4FBF8F108FB114132
:102DB0000220FFF7FFFDB5FBF6F006FB105063287D
:102DC00006D9B5FBF6F006FB1050B0FBF7F100E0BA
:102DD0000A210320FFF7EEFDB5FBF7F007FB1050CB
:102DE0004446B0FBF4F10420FFF7E4FDB5FBF4F03A
:102DF00004FB10510520FFF7DDFD00F003F9044648
:102E000000F0D0FFFFF70AFD322C01DD002000E0CA
:102E10000120FFF779FD01214C464846FDF7B2FB42
:102E2000012894D101212046FDF7ACFB0128F9D0FF
:102E300000F00AFA8BE7000000100240007000402A
:102E400000080140000C014000100140884200D8F9
:102E5000084670477FB500208DF80C00012503AEB1
:102E60000A240096CDE901542B460922AF210948D6
:102E7000FDF7E4FD9DF80C00009640F080008DF811
:102E80000C00CDE9015401230922AE210148FDF7D0
:102E9000FDFE7FBD840000202DE9F04F8BB000F0D7
:102EA00023F981460146684600F0B2F80024DFF8B5
:102EB00024B1A046484E86E0684600EBC40549F6BA
:102EC00040406968814206D286F8008086F8018019
:102ED000A6F8088075E02868FFF798FE3E4B10338F
:102EE000A3F10A02911D901EFFF7A4FE2846FFF7EA
:102EF000D3FE306900F06EFF0746F08800F06AFFED
:102F0000394600F06DFE0746F06800F063FF824628
:102F1000B08800F05FFF514600F062FE394600F0D5
:102F20005FFE2E492E4A0144914208D22D4900F0FD
:102F300065FF2D4901F02EF800F014FF0FE02B493A
:102F40002B4A014491420BD22A4900F057FF00F06E
:102F5000B9FD294A294B00F0BFFC00F091FB7070CD
:102F60006D68B08A401B00B23081322825DDB3780D
:102F70000C2B22D90BEB0400092110F8010C5A4646
:102F8000491E105511F0FF01FAD113701BF80420EF
:102F90000020491CC9B210440A29FAD300F01AFFD4
:102FA00000F090FD02460B460020154900F010FA93
:102FB00000F066FB307086F802807561B078401CC6
:102FC000B070641CE4B24C45FFF476AF0BB0BDE8C2
:102FD000F08F00001C0100200000002014AE47C14B
:102FE000D7A370000000A0410000D6423D0AD7C020
:102FF0003D0A57000000584214AE47E17A34604061
:10300000004CDD400148B0F9080070470000002086
:1030100070B58CB00C460546052900D9052404EB93
:10302000440003AE192140000096CDE901010123BF
:103030000722AF211348FDF701FD00221DE002EB3E
:10304000420016F8101006EB40000904437841EAEC
:10305000032183781943C1F3110145F83210C17877
:1030600003790904407941EA03210143C1F31100C6
:1030700005EBC201521CD2B24860A242DFD30CB0B1
:1030800070BD0000840000200148007870470000F7
:103090000000002001484078704700000000002038
:1030A0002DE9FF4100208DF80C00012603AF0A2511
:1030B0000097CDE9016502463346AF210948FDF787
:1030C000BDFC9DF80C400097CDE9016501231A462F
:1030D000AF210448FDF7B2FC9DF80C0004B020437A
:1030E000BDE8F0818400002030B585B000208DF867
:1030F0000C008DF8100001240A2503A88DE831008A
:1031000023460422AF210B48FDF798FC04A88DE864
:10311000310001230622AF210648FDF78FFC9DF800
:103120000C009DF81010401A00D5203005B0C0B238
:1031300030BD0000840000202DE9FF41402701251B
:1031400003AE8DF80C700A240096CDE901544FF0BF
:1031500000082B460922AE213848FDF797FD00965E
:10316000CDE9015401230922AF213448FDF766FC63
:103170009DF80C004006F2D48DF80C700096CDE955
:10318000015401230222AE212C48FDF77FFD63206C
:103190008DF80C000096CDE9015401230A22AE21DE
:1031A0002648FDF773FD47208DF80C000096CDE909
:1031B000015401230C22AE212048FDF767FD009643
:1031C000CDE9015401230D22AE211C48FDF75EFD1F
:1031D0000096CDE9015401231022AE211748FDF7D6
:1031E00055FD8DF80C800096CDE901540123042291
:1031F000AE211248FDF74AFD0096CDE901540123A6
:103200000522AE210D48FDF741FD0096CDE90154A0
:1032100001230622AE210948FDF738FDFFF740FFE4
:1032200003208DF80C000096CDE9015401230922FA
:10323000AE210248FDF72AFDBDE8FF818400002091
:10324000884200D30846704710B5FFF773F9FFF7BF
:1032500001FE6420FDF79EF84FF480742046FDF7D0
:10326000FDFE0649086840F004020A602046FDF7AA
:1032700003FFBDE81040FDF70DBF000000700040E7
:1032800010B591EA030F48BF83F0004300F1388383
:10329000841A71EB030C05D2121943EB0C03001BCB
:1032A00061EB0C01DFF824E14FEA1154A4EB135C4D
:1032B0001EEA430F18BF9EEA445F73D023EA0E0351
:1032C000DCF1200E21EA045143F4801332D322FAB8
:1032D0000CFE10EB0E0023FA0CFE41EB0E01CCF1BC
:1032E000200E03FA0EFE10EB0E0051F10001B1F5B5
:1032F000801FCCF1200E32D201EB045112FA0EF2F3
:10330000BDE8104058BF7047401C38BF5FEA42021A
:1033100018BF7047002814BF20F0010041F10001E0
:103320004FEA410313F5001F38BF7047A1F1C041B8
:1033300000F0CCBA012A43EB0302ACF1200CDCF123
:103340001F0E32BF4FF0000E23FA0CF310EB0300F8
:1033500041EB0451B4EB115FD0D0A1EB045101F566
:10336000801149085FEA300001EB04510ED350F19F
:10337000000038BF12FA0EFE08D1BDE81040C9E7C0
:10338000401C38BF5FEA4202CAD1C3E7BDE8104023
:103390004FEA410313F5001F38BF7047A1F1C04148
:1033A00000F094BA9EEA445F08D011EA5E0FBDE8CF
:1033B000104004BF01F0004100207047BDE81040FC
:1033C00070B500F035FA00BF64FBBE3E0000E0FFC0
:1033D0002DE9C04130B4DFF8A0C23CEA111418BF97
:1033E0003CEA131400F0EC8081EA03051CEA111496
:1033F00044EAD57418BF1CEA131500F0C780A4EB8B
:1034000005044FF0004545EAC12145EAC32341EADE
:10341000505143EA525304F17F74994204F5003449
:103420004FEAC0204FEAC22208BF904200F09C80C1
:103430004FEA13650FF24016765D4FEA134506FB1F
:1034400005F7C7F1807706FB07F74FEAD737A7FBE9
:1034500003687642C8F58038A7FB06CE38BFA8F1CE
:10346000010807FB08E64FF0000EA6FB028CE6FB06
:1034700003CEDCF1000CCEF1004E38BFAEF1010EF0
:10348000A6FB0C584FF000074FF00005E6FB0E8737
:10349000A1FB08C6A0FB07CE16EB0E0645F1000502
:1034A000E1FB076515F1E04E7EBFA4F580345FEACD
:1034B00046066D4116F1800745F100054FEA1727D2
:1034C0004FEA066647EA0567A6F1DE46B6F1805F79
:1034D0004FEA15251FD9384624F0010C05EBC471BD
:1034E000BCF1FE6F01EB0C1102D8F0BCBDE800810D
:1034F00024425CBF01F5801E9EEAC47F02D4F0BC6A
:10350000BDE80081244238D4F0BCA1F1C041BDE83F
:10351000004100F0DBB94FEAD22242EA43524FEABF
:10352000D323A7FB02864FEAD02040EA415007FB95
:1035300003661EEA0E0F4FEAD12105FB026658BF53
:10354000A6EB0056B6EB00564FEA520E4EEAC37E8B
:1035500018EB0E0E56EB530EBDD518EB02085E416C
:103560007F1C55F10005B6E74FF480154FF00007BA
:103570004FF000064FF00008ADE7F0BC4FF0000040
:1035800001F1C04101F00041BDE8008111EA0C1FCA
:103590000CEA131500D00CE013EA0C1F00F0258094
:1035A0004FF00000F0BC81EA030101F00041BDE8EA
:1035B0000081F0BCBDE8004181EA030100F086B95A
:1035C000F0BCBDE8004170B500F032F9097EFC3E68
:1035D00000F007B881EA03014FF0000001F000415C
:1035E000704781EA030100F071B9F0BCBDE8004109
:1035F0004FF0000021497047FFFDFBF9F7F5F4F2A9
:10360000F0EEEDEBE9E8E6E4E3E1E0DEDDDBDAD87D
:10361000D7D5D4D3D1D0CFCDCCCBCAC8C7C6C5C4DB
:10362000C2C1C0BFBEBDBCBBBAB9B8B7B6B5B4B3F2
:10363000B2B1B0AFAEADACABAAA9A8A8A7A6A5A4DD
:10364000A3A3A2A1A09F9F9E9D9C9C9B9A999998A1
:103650009797969595949393929191908F8F8E8E44
:103660008D8C8C8B8B8A89898888878786858584D1
:1036700084838382828181800000FF070000F87FBD
:103680004FEA1153A3F58063D3F11E03A8BFD3F112
:10369000200C08DB4FF0004242EAC12252EA5052AD
:1036A00032FA03F0704709420BD4102BC4BF00203C
:1036B000704703F5787CBCF1FF3F05D04FF0FF3039
:1036C00070474FF00000704770B500F0B1F800BFD0
:1036D0004992248000207047F0E70000DFF848C1DD
:1036E00070B51CEA111E1EBF1CEA13159EEA0C0FD2
:1036F00095EA0C0F00F06F8081EA030423EA4C1373
:103700004EEAD47E21EA4C1141F4801143F4801337
:10371000AE44A1FB024CA0FB0365AEF17F7E3619DF
:1037200055EB0C05A1FB034C4CF10003A0FB021C64
:1037300016EB0C06654153F10003094218BF46F031
:10374000010613F4007F0BD14FEA03314FEA053035
:10375000340341EA155140EA16506FF003020AE0C3
:103760004FEAC3214FEAC520F40241EA555140EA2D
:1037700056506FF0020202EB2E4201EB025585EA31
:10378000CE710AD05FEA440C18BF24F0004450F117
:10379000000041F1000120EAD47040F2FE7C624555
:1037A00000D270BDA84214BF4FF080444FF0404497
:1037B000002E08BF0024BEF1806FA8BFA1F1C04158
:1037C000BDE8704080F282804FF0000001F1C041FE
:1037D00001F0004170479EEA0C0F0CEA131518BF68
:1037E00095EA0C0F06D04FF0000081EA030E0EF0B0
:1037F000004170BD00F01CF88900013E00F007B8E0
:1038000000F009B84FEA430C5FEA5C5C08D081EA3B
:10381000030100F05BB84FEA410C5FEA5C5CF6D153
:103820004FF00000014970470000FF070000F87FDB
:103830000EF1020E2EF0030E5EF8046B364205D434
:10384000012A43EB030515F5001F12D8012841EBAF
:10385000010C1CF5001F0CD80ED14FEAD17C15F5D8
:10386000001F0CEB4C0C0CF1020C08BF4CEBD37C92
:1038700004E04FF0080C01E04FEAD37C0CEB4C0560
:1038800026FA05F606F00706B6F1040C06D20EEB92
:10389000860CBDE870404CF0010C6047DFE80CF08E
:1038A000090B02024FF000414FF00000A1F500218A
:1038B00070BD19461046012851EB010418BFD4F51C
:1038C000001484BF002001F0004170BD0808A0F57D
:1038D00000114FEA3101704791EA030F10B581F0F2
:1038E00000413FF5D5AC83F0004300F009B800007B
:1038F00010B591EA030F48BF83F000433FF5C8AC11
:10390000841A71EB030C07D212198CF0004C43EBB4
:103910000C03001B61EB0C01DFF8A4E14FEA11542A
:10392000A4EB135C1EEA430F18BF9EEA445F00F04D
:10393000B08023EA6E03524221EA0451C3EB6E03C6
:1039400038BF5B1EDCF1200E25D322FA0CFE10EBF3
:103950000E0043FA0CFE41EB0E01CCF1200E03FAEF
:103960000EFE10EB0E0051F10001CCF1200E29D417
:1039700012FA0EF201EB0451BDE8104058BF704737
:10398000401C1CBFB2F1004F704700280CBF491CFF
:1039900020F00100704712EB020E43EB030218BF48
:1039A0004FF0010E4EEA4202ACF1200CDCF11E0E8B
:1039B00054D943FA0CFE10EB0E0051F1FF31CCF15B
:1039C0001E0ED5D50EF1010E12FA0EFE404141EB4E
:1039D000010101EB445C5FEA5C5C10D910EBDE7026
:1039E00001EB045138BFBEF1004FBDE8104018BFD5
:1039F000704700280CBF491C20F00100704730D2EE
:103A00004FEAD42C11F5001124F400641BD0B1FA54
:103A100081F20B3AA41AA41ED2F12003914030FA8D
:103A200003F31943904001EBCC71002C01EB0451DE
:103A3000BDE81040A8BF704701F1C0414FF0000041
:103A400001F000417047B0FA80F310FA03F100D1A1
:103A500010BDE41A173C4805C90AE4E701EB04511C
:103A600010BD491001EB0451BDE810404FEA300091
:103A700002E04FF0000170474A0008BF0042F8D052
:103A8000B2F5001F28BF704701F000414FF0000061
:103A900070479EEA445F07D011EA5E0FBDE8104010
:103AA00004BF002100207047BDE8104070B5FFF74B
:103AB000BFFE00BF40DFF63E83F000411046704776
:103AC0000000E0FF43004FEAD30C4FEA3C0C4340B8
:103AD0001FBF40070CF1605113F0FE4F70471CF000
:103AE000006F03D100200CF0004170470CF0004340
:103AF00043EA507010B540EACC0000F000FA00BF75
:103B0000000000924FEA0001FFF7E0BE4FF00041D5
:103B10004FF00000A1F500217047000090EA010F6E
:103B200048BF81F0004100F14682421A3CBF801A32
:103B300089184FEAD0524FF07F4C1CEA410FA2EB9C
:103B4000D15318BF9CEA026F00F03B804FF0004C4D
:103B50004CEA00204CEA012121FA03FC10EB0C0C8A
:103B60001ED202F1FF325FEA1C2040EBC25038BF88
:103B700070471CF07F0F4FEA400C18BFBCF17F4F1D
:103B800038BF7047C3F12003994008BF20F00100FF
:103B9000BCF17F4F38BF7047A0F1C04000F0F5B9CD
:103BA0004FEA3C00000A40EBC25028BF1CF0FF0F58
:103BB0004FEA400CE6D018BFBCF17F4F38BF7047CA
:103BC000EAE79CEA026F05D010EA5C0F08BF00F03C
:103BD0000040704710B500F092F900BF64FBBE3E94
:103BE0004FF47F0C1CEAD0121EBF1CEAD11392EADC
:103BF0000C0F93EA0C0F00F0858090EA010F48BF8C
:103C000042F4807240F4000C41F400002CF07F413B
:103C100020F07F4000B58142A2EB03020FF2081CA6
:103C2000ACEB504EC0F100009EF800E04FEA4E0EA3
:103C300000FB0EFC38BF49004FEA2C1C02F5FA02CB
:103C40000CFB0EF34FEACE1E4FEA112C4FEAC121B6
:103C50000EEB635E42EB22420EFB0CFC4FEA1C5360
:103C600000FB03114FEA112C4FEA01310EFB0CFC53
:103C70004FEADC4C00FB0C11C14228BF09184CEB89
:103C800003335DF804EB10EB410143EBC250B2F596
:103C90007C0F38BF704729D512F0F00F1CBF00F120
:103CA000C04000F000407047008182838485868791
:103CB00088898B8C8D8E8F919293959697999A9CEB
:103CC0009D9FA0A2A3A5A7A8AAACAEB0B2B3B5B75A
:103CD000B9BCBEC0C2C5C7C9CCCED1D4D7D9DCDF30
:103CE000E2E6E9ECF0F3F7FAFE0000004FEA400CE0
:103CF0000CF1807CBCF17E4F28BF7047B0F1C04012
:103D000000F043B990EA010F0CEAD11348BF42F426
:103D10008072624538BF634507D213F47F0F16D017
:103D200080EA010000F00040704710B500F0E7F8AD
:103D3000097EFC3E00F005B880EA010000F000407A
:103D4000704780EA010000F0004000F01EB912F454
:103D50007F0F04BF0248704780EA010000F015B9E8
:103D60000000C07FC10DD1F19E0206DB4FEA0023A7
:103D700043F0004323FA02F07047004207D54FEAB0
:103D80004001B1F1FE4F02D24FF00000704710B574
:103D900000F0B5F849922480002070476FEA2000B7
:103DA0007047000010F0004148BF4042B0FA80F375
:103DB00010FA03F2C3F19D030BD051EAC35101EB9A
:103DC0001220530638BF704700F1010008BF20F0F1
:103DD00001007047B0FA80F310FA03F2C3F19D03BB
:103DE0000AD0D90501EB1220530638BF704700F105
:103DF000010008BF20F00100704700004FF47F0C65
:103E00001CEAD0121EBF1CEAD11392EA0C0F93EAEF
:103E10000C0F00F0478090EA010F48BF42F4807217
:103E20004FF0004C4CEA00204CEA012102EB030267
:103E3000A0FB0113A2F50002002918BF43F0010303
:103E40005B0028BF4FEA330342EB22425FEA132CA8
:103E50004CEBC2502EBFBCEB436FB2F57C0F7047EA
:103E60004FEA036CBCF1004F08BF20F00100B2F52F
:103E70007C0F38BF70470BD582F0FF0212F5803FF0
:103E8000C8BF704700F1C040D8BF00F00040704785
:103E900000F5000C5FEA4C0C48BF7047B0F1C04021
:103EA00000F073B890EA010F0CEAD11348BF42F456
:103EB0008072624538BF634504D280EA010000F099
:103EC0000040704710B500F01AF800BF8900013EAD
:103ED00000F007B800F009B85FEA410C5FEA1C6C1B
:103EE00008D080EA010000F050B85FEA400C5FEAB9
:103EF0001C6CF6D14FF00040A0F5800070470EF129
:103F0000020E2EF0030E5EF8044B244204D44FEA56
:103F10004102B2F17F4F11D84FEA4003B3F17F4F16
:103F20000CD80ED14FEAD07CB2F17F4F0CEB4C0C89
:103F30000CF1020C08BF4CEBD17C04E04FF0080CF4
:103F400001E04FEAD17C0CEB4C0324FA03F404F0BB
:103F50000704B4F1040C06D20EEB840CBDE810404B
:103F60004CF0010C6047DFE80CF0070802024FF04C
:103F70000040A0F5800010BD0846420018BFD2F1F5
:103F8000807288BF00F0004010BDFF2141EAD05090
:103F9000C005704780F0004090EA010F7FF5C5AD85
:103FA00081F0004100F007B890EA010F48BF81F0AE
:103FB00000413FF5BAAD421A04D882F00042A0EBAE
:103FC000020011444FEAD0524FF07F4C1CEA410FDF
:103FD000A2EBD15318BF9CEA026F4AD04FF0004CBD
:103FE0004CEA00204CEA012121FA03FCB0EB0C0C56
:103FF0000FD412F0FE0F36D05FEA4C001DD5001230
:1040000040EBC25038BF70471CF03F0F18BF7047DD
:104010000BE0A2F101025FEA1C2040EBC25038BF66
:1040200070471CF07F0F18BF7047C3F12003994001
:1040300014BF401E20F00100704780084FEA122391
:1040400008BF7047B0FA80FCA2EB0C02CCF1280C40
:1040500060FA0CF093EA122F04BF00EBC2507047D5
:104060004FEAC3707047130A5FEADC1008BF70475D
:10407000F6E79CEA026F04D010EA5C0F08BF00204C
:10408000704710B5FFF73BFF40DFF63E81F0004080
:10409000704718242F56626D0000000000000000D9
:1040A000002F000000000700070000147F147F1499
:1040B00000242A7F2A12006264081323003649551F
:1040C000225000000503000000001C2241000000F7
:1040D00041221C000014083E08140008083E08088D
:1040E000000000A0600000080808080800006060E8
:1040F0000000002010080402003E5149453E000027
:10410000427F4000004261514946002141454B3108
:10411000001814127F10002745454539003C4A49D4
:104120004930000171090503003649494936000646
:104130004949291E000036360000000056360000AE
:104140000008142241000014141414140000412229
:10415000140800020151090600324959513E007C01
:104160001211127C007F49494936003E41414122EB
:10417000007F4141221C007F49494941007F0909D4
:104180000901003E4149497A007F0808087F000084
:10419000417F4100002040413F01007F081422413F
:1041A000007F40404040007F020C027F007F0408F7
:1041B000107F003E4141413E007F09090906003E53
:1041C0004151215E007F091929460046494949317C
:1041D0000001017F0101003F4040403F001F20409F
:1041E000201F003F4038403F00631408146300075D
:1041F0000870080700615149454300007F414100B4
:1042000000552A552A55000041417F000004020153
:104210000204004040404040000001020400002031
:1042200054545478007F484444380038444444206F
:1042300000384444487F00385454541800087E091C
:1042400001020018A4A4A47C007F080404780000E4
:10425000447D4000004080847D00007F10284400A1
:104260000000417F4000007C04180478007C0804B2
:10427000047800384444443800FC242424180018EE
:10428000242418FC007C08040408004854545420DA
:1042900000043F444020003C4040207C001C204063
:1042A000201C003C4030403C004428102844001CA6
:1042B000A0A0A07C004464544C441414141414149E
:1042C000F8FCFEFFFFFFFEFCF8F0E0F0F8FCFEFF5C
:1042D000FFFFFEFCF801071F3F7FFFFFFFFFFFFF0F
:1042E000FFFFFFFFFF7F3F1F0701000000000000EE
:1042F0000103070F0F0F0703010000000000003F3C
:10430000065B4F666D7D077F6F00000000000000B8
:104310000000010203040607080900000000010272
:1043200003040000444300080000002030000000A7
:10433000280100087443000830000020E80C000049
:104340004401000800000000000000000000000020
:10435000000000000000000000000000000000005D
:10436000000000000100000010000000000000003C
:0443700000A24A0459
:04000005080000ED02
:00000001FF
