:020000040800F2
:10000000C8070020010100081F180008131300088A
:100010001D180008EB030008B919000800000000D3
:10002000000000000000000000000000231800088D
:10003000ED03000800000000211800082518000842
:100040001B0100081B0100081B0100081B01000820
:100050001B0100081B010008F10300081B01000838
:100060001B0100081B0100081B0100081B01000800
:100070001B0100081B0100081B0100081B010008F0
:100080001B0100081B0100081B0100081B010008E0
:100090001B0100081B0100081B0100081B010008D0
:1000A0001B0100081B0100081B0100081B010008C0
:1000B0001B0100081B0100081B0100081B010008B0
:1000C0001B0100081B0100081B0100081B010008A0
:1000D0001B0100081B0100081B0100081B01000890
:1000E0001B0100081B0100081B010008DFF80CD0F1
:1000F00000F05AF900480047E51B0008C807002037
:100100000648804706480047FEE7FEE7FEE7FEE7B1
:10011000FEE7FEE7FEE7FEE7FEE7FEE787180008DA
:10012000ED000008202A04DB203A21FA02F0002129
:10013000704721FA02F3D040C2F1200291400843F7
:100140001946704740EA01039B0703D009E008C93C
:10015000121F08C0042AFAD203E011F8013B00F88C
:10016000013B521EF9D27047D2B201E000F8012BD8
:10017000491EFBD270470022F6E710B513460A4627
:1001800004461946FFF7F0FF204610BD2DE9F04D5B
:1001900081EA030404F0004B21F0004514464FF0BF
:1001A000000A23F0004150EA050220D054EA01027F
:1001B0001DD0C5F30A570246C5F31303C1F313005C
:1001C000C1F30A5640F4801543F48013A7EB0608E8
:1001D000101BD64608F2FD3873EB050002D308F178
:1001E000010801E092185B41B8F1000F03DA00202A
:1001F0000146BDE8F08D00204FF48011064684468C
:100200000EE0171B73EB050705D3121B63EB050309
:1002100006434CEA010C49084FEA300092185B4152
:1002200050EA0107EDD152EA030012D082EA04003D
:1002300083EA0501084305D0101BAB4106D2012219
:10024000002306E000224FF0004302E06FF00102BD
:1002500053101AEB06004CEB085110EB0A0041EB6F
:100260000B01BDE8F04D00F042B8C1F30A5210B5E1
:10027000C1F3130140F2FF3341F480119A4201DAD5
:10028000002010BD40F233439A42A2F2334203DC15
:100290005242FFF747FF10BD904010BD00F00042F2
:1002A00030F000400AD0C10D01F56071C0F31600B6
:1002B00042EA0151C208400711437047002001463D
:1002C000704730B50B46014600202022012409E08A
:1002D00021FA02F59D4205D303FA02F5491B04FAFF
:1002E00002F52844151EA2F10102F1DC30BD10B563
:1002F000141E73F1000408DA401C41F10001921849
:100300005B411A4301D120F0010010BD2DE9F04DF1
:1003100092469B4611B1B1FA81F202E0B0FA80F246
:100320002032904600F052F804460F4640EA0A0098
:1003300041EA0B0153465A46084313D0114653EA8B
:10034000010019D0C8F140025046FFF7EBFE054608
:100350000E4650465946424600F038F8084305D04C
:10036000012004E020463946BDE8F08D0020054319
:1003700046EAE0762C4337430A986305E40AA0EB8B
:1003800008000022FD0A44EA47540A3002D5002042
:100390000146E9E7010510196941DDE90845001941
:1003A0006941BDE8F04DA2E7064C074D06E0E06864
:1003B00040F0010394E8070098471034AC42F6D3AC
:1003C000FFF798FEB8200008D8200008202A04DB98
:1003D000203A00FA02F1002070479140C2F1200358
:1003E00020FA03F3194390407047FEE7704700007E
:1003F00010B5044801F0CDFCBDE81040012000F02C
:1004000007B80000BC00002072B6FEE7704700008D
:10041000044910B50A68024202D00860FFF7F6FFEF
:1004200010BD0000140401402DE9F84FDFF8B89129
:100430000024A9F1040B23460F2709F1040AABF1AC
:10044000040EC9E00125A5402A40AA427DD1674E8D
:10045000D1F804C0ACEB0608B44532D014DCBCF1D2
:10046000030F3AD009DCBCF1000F2AD0BCF1010F18
:100470001CD0BCF1020F31D11DE0BCF1110F17D01F
:10048000BCF1120F2AD119E0B8F5881F19D006DC8B
:10049000B8F5803F15D0B8F5801F1FD111E0B8F531
:1004A000001F0ED0B8F5041F18D10AE0CB6815E084
:1004B000CB681B1D12E0CB6808330FE0CB680C3310
:1004C0000CE08B682BB1012B4FF0080303D0456182
:1004D00004E0042302E0056100E00023FF2A01D8C4
:1004E000064601E000F104064FEA840501D9A5F1B2
:1004F0002005D6F8008007FA05FC28EA0C0803FA64
:1005000005F548EA0508C6F800804D68ED0062D59B
:10051000374DAE6946F00106AE61AD6924F00306C1
:1005200005F001050095334D06EB050CDCF808508D
:10053000A607360F07FA06F825EA0805DFF8B8809F
:10054000404503D14FF0000817E044E0DFF8AC80ED
:10055000404502D14FF001080FE0DFF8A48040458C
:1005600002D14FF0020808E0DFF89880404502D140
:100570004FF0030801E04FF0040808FA06F848EAD3
:100580000508CCF808804D68D9F80060ED024D46AA
:1005900001D5164300E096432E604D68DAF80060FE
:1005A000AD02554601D5164300E096432E604D68D6
:1005B000DBF80060AD035D4601D5164300E09643CD
:1005C0002E604D68DEF80060ED03754601D51643D8
:1005D00000E096432E60641C0D682A46E5407FF4D7
:1005E00031AFBDE8F88F0000080401400000111091
:1005F000001002400000014000080140000C0140D2
:10060000001001400014014001488068704700005C
:100610000000002070B5040025D094F83D000025AE
:1006200020B984F83C50204600F076FA242084F863
:100630003D002068016821F0010101602068016827
:1006400041F4004101602068016821F4004101602B
:1006500000F0BEFB4D4A6168914201D84C4900E070
:100660004C49884201D2012070BD4B492368B0FB40
:10067000F1F15E6826F03F060E435E6063689342C8
:1006800006D94FF4967359434FF47A73B1FBF3F1E3
:100690002368491C1E6A26F03F06314319626168CF
:1006A000914210D84900401EB0FBF1F2521CC2F337
:1006B0000B02042A01D2042022E0B0FBF1F0401C1E
:1006C000C0F30B001CE0A268F2B301EBC10303EB23
:1006D0000116431EB3FBF6F35B1C43F480431B057A
:1006E00049D092B301EBC10202EB0111401EB0FBF5
:1006F000F1F0401CC0F30B0040F4804040F4004097
:100700002168CA694CF6FF739A431043C861D4E963
:10071000071001432068026822F0C0021143016003
:10072000D4E9030101432068826848F2FF339A4309
:1007300011438160D4E9050108432168CA6822F0A9
:10074000FF021043C86001E00EE016E02068016877
:1007500041F0010101602564202084F83D002563FB
:1007600084F83E50002070BD01EB4106431EB3FBF0
:10077000F6F35B1CB3E70120C2E701EB4101401E29
:10078000B0FBF1F0401CC0F30B00B7E7A0860100FE
:1007900080841E0000093D0040420F002DE9F84F03
:1007A0000025DDF82890984617468A4604460095AD
:1007B000FFF72AFF064694F83D0020287AD1192336
:1007C000012286492046009600F0ACFE0028F5D1B3
:1007D00094F83C0001286DD0012084F83C0020688A
:1007E0000168C90703D1016841F001010160206877
:1007F000016821F400610160222084F83D0010208E
:1008000084F83E0025646762A4F82A80608D208504
:100810007348E06233464A465146204600F092FD56
:1008200000287CD1208DDFF8BC81202768B1012809
:1008300014D00228206801681ED041F48061016054
:100840002068416980690090BBE020684169816946
:100850000091016841F400710160B2E02068016814
:1008600021F48061016072B620684169816900915C
:10087000016841F400710AE041F40061016072B660
:100880002068416981690091016821F480610160FB
:1008900062B696E0032865D801280CD002284B46A2
:1008A0004FF000024146204600960BD000F03AFE81
:1008B000A8BB0CE090E032464946204600F0D8FE46
:1008C00068BB71E000F02EFE48BB72B633E02068D2
:1008D000016821F48061016072B620680069616A74
:1008E0000870606A401C6062208D401E2085608D0B
:1008F000401E60853C4846F2A8110068B0FBF1F04C
:10090000C0EBC00000EB80000090401E009007D0BC
:1009100020684069C04340070DD50098F5E727E0FF
:1009200044F8305F6773A573206940F020002061B0
:1009300062B625731CE02068016841F40071016013
:1009400020680069616A0870606A401C6062218DDD
:10095000491E2185618D491E618562B6216809693C
:10096000017025E032464946204600F081FE10B174
:100970000120BDE8F88F20680069616A0870606A2C
:10098000401C6062208D401E81B22185608D401E1A
:10099000608520684269D243520712D4032903D1EB
:1009A000016821F48061016020680069616A087053
:1009B000606A401C6062208D401E2085608D401E54
:1009C0006085208D00287FF465AF84F83D7084F841
:1009D0003E5084F83C50CCE70220CAE702001000E9
:1009E0000000FFFF040001000C0000202DE9F84F7B
:1009F0001F4690468A460446DDF82890FFF704FE1D
:100A0000054694F83D0020287FD119230122404952
:100A10002046009500F086FD002876D194F83C0031
:100A2000012872D0012084F83C0020680168C907C1
:100A300003D1016841F0010101602068016821F4DF
:100A400000610160212084F83D00102084F83E0000
:100A500000262664C4F824806785608D20852D4893
:100A6000E0622B464A465146204600F0E1FC90B930
:100A7000206841698069009036E02A464946204650
:100A800000F02EFE50B1206C042804D120680168CB
:100A900041F4007101600120BDE8F88F606A2168AF
:100AA00000780861606A401C6062618D491E618542
:100AB000218D491E89B2218522685369DB435B077A
:100AC0000BD451B100781061606A401C6062608D87
:100AD000401E6085208D401E20852A4649462046BE
:100AE00000F0F4FC0028CED1208D0028C5D154F8A8
:100AF0003D0B016841F400710160202004F81E09DB
:100B0000E67766770020C7E7FFE70220C4E700002A
:100B1000020010000000FFFF10B586B00021009118
:100B200001910291039100680F4988421AD10F4C3C
:100B3000A06940F00800A061A069694600F00800C3
:100B40000490C020009012200190032003900848D8
:100B5000FFF76AFCE06940F40010E061E06900F42E
:100B60000010049006B010BD005400400010024078
:100B7000000C01400248816802781144816070478E
:100B800000000020074810B5016841F01001016025
:100B9000032000F075F80F2000F006F800F024F8AC
:100BA000002010BD0020024070B50D4D04464FF4EA
:100BB0007A712878B1FBF0F00A490968B1FBF0F0CE
:100BC00000F0DCFA48B9102C07D200222146501E52
:100BD00000F036F800206C6070BD012070BD000090
:100BE000000000200C0000200C4808B5816941F08D
:100BF00001018161816901F001010091C16941F048
:100C00008051C161C06900F0805000900448416883
:100C100021F0E06141F00071416008BD0010024028
:100C200000000140002809DB00F01F020121914073
:100C30004009800000F1E020C0F80011704700007A
:100C4000F0B40E4B1B680C46C3F30223C3F1070537
:100C5000042D00D90425191D072901D2002300E025
:100C6000DB1E012606FA05F1491E214099409E40EF
:100C7000761E16403143F0BC00F0B0BE0CED00E033
:100C8000064900F0070208684FF6FF03184040EAE3
:100C90000220034A10430860704700000CED00E09A
:100CA0000000FA052DE9F0470F46050061D0434EDC
:100CB000306800F00700B84209D2306820F0070021
:100CC00038433060306800F00700B84251D12868DE
:100CD0003B4C810712D5400703D5606840F4E060C3
:100CE00060602878000703D5606840F46050606059
:100CF0006068A96820F0F000084360602878C007A9
:100D000028D06868012810D02168022810D08907EF
:100D100000292EDA616821F0030101436160FFF7C9
:100D200073FC804641F288390DE021688903EFE7C2
:100D30008901EDE7FFF768FCA0EB0801494502D9FE
:100D40000320BDE8F0876068696800F00C00B0EB34
:100D5000810FEFD1306800F00700B8420BD930683E
:100D600020F0070038433060306800F00700B842D8
:100D700001D00120E5E72878400705D56068E968DB
:100D800020F4E060084360602878000706D56068BA
:100D9000296920F4605040EAC100606000F038F832
:100DA0006168084AC1F30311515CC84006490860F4
:100DB00006480068FFF7F8FE0020C2E70020024066
:100DC000001002409E2000080C00002004000020BB
:100DD0000448054900684968044AC1F30221515C8E
:100DE000C84070470C00002000100240AE200008F0
:100DF0000448054900684968044AC1F3C221515CAE
:100E0000C84070470C00002000100240AE200008CF
:100E10000E4A51680E4801F00C03042B11D0082B28
:100E20000FD10C48C1F38343C903C05C0AD5516894
:100E3000084AC1F34041921E515C054A5043B0FB41
:100E4000F1F0704704494843704700000010024029
:100E500000127A008E20000800093D002DE9F84FAD
:100E6000040070D02078C04DC00749D06868C0F336
:100E70008100012807D06868C0F38100022809D1E9
:100E80006868C00306D52868800339D560680028E3
:100E9000E7D035E06068B0F5803F0BD010B1B0F519
:100EA000A02F11D0286820F480302860286820F412
:100EB000802002E0286840F480302860606890B1AB
:100EC000FFF7A2FB06460AE0286840F4802028606D
:100ED000F0E700BFFFF798FB801B642873D82868F1
:100EE0008003F7D50CE0FFF78FFB064605E000BF57
:100EF000FFF78AFB801B6428F0D828688003F7D4AA
:100F000020789A4E80074FF001094FF0000839D53C
:100F1000686810F00C0F07D06868C0F381000228E1
:100F200009D16868C00306D42868800714D52069F1
:100F3000012808D110E02069B0B1C6F80090FFF791
:100F400063FB074605E00AE1FFF75EFBC01B0228D2
:100F5000C4D828688007F7D52868616920F0F800B0
:100F600040EAC10028600DE0C6F80080FFF74CFBA6
:100F7000074604E0FFF748FBC01B022823D8286877
:100F80008007F7D4207800072CD57948A169D9B11A
:100F9000C0F80090FFF738FB074604E0FFF734FB8A
:100FA000C01B02280FD8686A8007F7D571484FF434
:100FB000FA510068B0FBF1F0009000BF0098411EAC
:100FC0000091FAD20EE080E0C0F80080FFF71CFB31
:100FD000074604E0FFF718FBC01B022875D8686AB3
:100FE0008007F7D42078400760D5E8690027C00063
:100FF00008D4E86940F08050E861E869012700F012
:10100000805000905C480168C90513D4016883468C
:1010100041F480710160FFF7F7FA824606E000BFF5
:10102000FFF7F2FAA0EB0A0064284ED8DBF80000C4
:10103000C005F5D5E06801280AD008B1052813D00D
:10104000286A20F001002862286A20F0040002E0EB
:10105000286A40F001002862E06841F2883B98B1BC
:10106000FFF7D2FA82460BE0286A40F004002862BB
:10107000EEE700BFFFF7C8FAA0EB0A0159455AD8BE
:10108000286A8007F6D50CE0FFF7BEFA824605E035
:10109000FFF7BAFAA0EB0A0159454CD8286A800735
:1010A000F6D41FB1E86920F08050E861E06988B3A8
:1010B0006968C1F38101022944D00228C6F8608022
:1010C00004D0FFF7A1FA044638E034E0FFF79CFAB9
:1010D000074604E0FFF798FAC01B02282BD82868BF
:1010E0008001F7D4206AB0F5803F05D16868A16817
:1010F00020F4003008436860D4E9080108436968B7
:1011000021F4741108436860C6F86090FFF77CFA18
:10111000044606E025E000BFFFF776FA001B022830
:1011200009D828688001F7D51BE000BFFFF76CFAEB
:10113000001B022802D90320BDE8F88F286880012F
:10114000F4D40EE00128F7D06868226A00F48031F8
:10115000914204D1616A00F47010884201D00120EC
:10116000EAE70020E8E700000010024000004242E9
:10117000800442420C0000200070004010B5401E68
:10118000B0F1807F01D3012010BD4FF0E0246061F9
:101190000F21601700F022FC0020A06107202061D1
:1011A000002010BD70B5040004D094F84100002563
:1011B00010B106E0012070BD84F84050204600F0D8
:1011C00023F8242084F841002068C16821F40051EC
:1011D000C160204600F058FB2068016921F490416D
:1011E00001612068416921F02A0141612068C168DC
:1011F00041F40051C1606564202084F8410084F806
:1012000042006563002070BD30B585B000240094B5
:1012100001940294039400681449884224D114482C
:10122000816941F480418161816901F480410491C7
:10123000816941F00401816180690E4D00F0040074
:1012400004904FF40070009002200190032003905E
:1012500069462846FFF7E8F82815CDE900046946F5
:1012600028460294FFF7E0F805B030BD0038014091
:1012700000100240000801402DE9F843044690F8B0
:1012800041001F4616460D46202802D00220BDE828
:10129000F8837DB176B100206064212084F841009C
:1012A000FFF7B2F9A6848046E684A068B0F5805FB7
:1012B00002D003E00120EAE7206910B12E460025A4
:1012C0000EE000260CE08021204600F039FBA0B99A
:1012D000AEB116F8010B21684860E08C401EE08436
:1012E000E08C43464FF0000200970028EBD14FF00E
:1012F0004001204600F024FB30B10320C7E735F859
:10130000020BC0F30800E6E7202084F8410000202B
:10131000BDE7FEE701684A69D24352050FD46FF476
:1013200080624A61002140F8301F2022427381739D
:10133000026942F00402026101730120704700203B
:10134000704700002DE9F84F0446C06A1E469346D8
:101350000D4621680A6842F480620A60082807D0B6
:10136000012805D010F5803F02D0206B112804D150
:101370002068016841F4807101604FF001195B46FB
:10138000002249462046009600F0CCF84FF4007841
:1013900040B120680068C00501D5C4F84080032032
:1013A000BDE8F88F2069DFF884A0B0F5804F0FD03A
:1013B0000620216800EAD51747F0F000086133469F
:1013C0005A460AF10601204600F0F4F858BB03E043
:1013D000E8B240F001001CE02168E8B20861334641
:1013E0005A465146204600F0E5F8E0B920684169C8
:1013F00081690091016841F4807101605B460022BF
:1014000049462046009600F08DF80028C1D147F0EB
:10141000F1002168086133465A465146204600F0E3
:10142000C9F80028BCD00120BAE700000200010082
:10143000F8B50446C06A1E460D461746082807D070
:10144000012805D010F5803F02D0206B122804D16E
:101450002068016841F480710160134600224FF05A
:1014600001112046009600F05DF840B12068006848
:10147000C00502D54FF4007020640320F8BD206938
:10148000B0F5804F0ED00620216800EAD51040F05C
:10149000F000086133463A460B49204600F08AF8CE
:1014A00078B902E005F0FE0000E0E8B221680861CA
:1014B000054933463A46891F204600F07BF800284C
:1014C000DCD00120F8BD00000800010070B5164610
:1014D0000D4604461EE02046FFF71CFF08B1012020
:1014E00070BD681C16D0FFF78FF8801BA84200D88B
:1014F00085B920684069C04340070BD5002044F8F7
:10150000300F20216173A073216941F02001216116
:101510002073E4E720684069C0434007DBD4002023
:1015200070BD00002DE9F047984617460D46044669
:10153000C1F30746DDF820902AE000BFB8F1FF3F75
:1015400026D0FFF761F8A0EB0901414502D8B8F1B8
:10155000000F1DD12068012E16D0806925EA0000F9
:101560000004000C12D00020B84211D1002044F831
:10157000300F20216173A073216941F020012161A6
:1015800020730120BDE8F0874069E7E70120EBE721
:101590002068012E0AD0806925EA00000004000CB2
:1015A00006D00020B842C9D00020EBE74069F3E73D
:1015B0000120F7E72DE9F047984616460D46044608
:1015C0004FF000094FF0200AC1F3074723E02068DD
:1015D0004069C043400515D42068016841F400719A
:1015E000016021686FF480604861C4F8309084F82D
:1015F0003DA084F83E90216C41F00401216484F800
:101600003C9021E0701C06D0FEF7FEFFA0EB080026
:10161000B04203D816B1012F1FD021E02068012F5E
:1016200015D0806925EA00000004000C18D000BF26
:1016300044F8309F84F80DA084F80E90216941F0A1
:101640002001216184F80C900120BDE8F0874069F9
:1016500025EA00000004000CEAD12068406901E09E
:101660002068806925EA00000004000CAFD1ECE797
:101670002DE9F041002590460E460446202728E03B
:101680004069C043C0060CD454F8301B6FF0100002
:10169000486144F810596777A577206A206225775A
:1016A00014E0FEF7B1FFA0EB0800B04200D886B905
:1016B00020684069C04340060BD544F8305F67732B
:1016C000A573206940F02000206125730120BDE84A
:1016D000F08120684169C9434906D1D40020F6E76A
:1016E00070B516460D4604461EE02046FFF712FE72
:1016F00008B1012070BD681C16D0FEF785FF801B65
:10170000A84200D885B920684069C04300060BD5BF
:10171000002044F8300F20216173A073216941F04B
:10172000200121612073E4E720684069C04300067E
:10173000DBD4002070BD000000B585B00020039010
:101740001548816941F020018161816901F0200122
:101750000491816941F004018161816901F0040112
:101760000491816941F00801816180690B4900F0B1
:10177000080004900120CDE9000102906946084864
:10178000FEF752FE002211460620FFF759FA062006
:10179000FFF748FA05B000BD00100240000021101C
:1017A000000C01400D4810B50B4901600C49416027
:1017B00000214FF480428160C0E9031241618161E0
:1017C000C1610162FEF726FF002803D0BDE810408A
:1017D000FEF71ABE10BD000000540040200000209B
:1017E000A08601000C4810B50A4901604FF4E131B0
:1017F0004160002181600C22C160C0E90412816156
:10180000C161FFF7CFFC002803D0BDE81040FEF710
:10181000FBBD10BD0038014074000020FEE7FEE76C
:1018200070477047FFF7A6B930B58FB028216846DA
:10183000FEF7A1FC14210AA8FEF79DFC0121080473
:10184000CDE900100024029402250491CDE907504F
:101850004FF4E01009906846FFF700FB08B172B63C
:10186000FEE70F20CDE90A054FF48060CDE90C407A
:1018700002210AA80E94FFF715FA002801D072B6CB
:10188000FEE70FB030BD704770B5044600680169CF
:10189000E26821F44051114301612169A0680843C5
:1018A000616908432168CA6841F20C639A430243A4
:1018B000CA6020684169A26921F440711143416105
:1018C0001E492068884202D1FFF792FA01E0FFF733
:1018D0007FFA00EBC00101EB001260686421800018
:1018E000B2FBF0F3B3FBF1F36FF018067343B2FBF6
:1018F000F0F5B2FBF0F605EB8305322303EB05159B
:10190000B5FBF1F5B6FBF1F605F0F00505EB0615B4
:10191000B2FBF0F6B2FBF0F0B0FBF1F06FF01802A2
:10192000504306EB800003EB0010B0FBF1F02168A0
:1019300000F00F002844886070BD000000380140AE
:101940002DE9F041984617460E460446069D27E0CD
:10195000681C25D02DB1FEF757FEA0EB0800A84269
:101960001ED920680C3050E8001F21F4D07140E8E7
:101970000012002AF5D12068143050E8001F21F031
:10198000010140E80012002AF5D1202084F841002E
:1019900084F84200002084F840000320BDE8F08174
:1019A0002068006836EA000004D00020B842CFD09A
:1019B0000020F3E70120F9E7FEE700000FB4054B34
:1019C00010B503A9044A029800F028F810BC5DF88D
:1019D00014FB0000711B0008140000200907090E09
:1019E000002804DB00F1E02080F80014704700F0CC
:1019F0000F0000F1E02080F8141D704702E008C8D5
:101A0000121F08C1002AFAD170477047002001E078
:101A100001C1121F002AFBD1704700002DE9FF4FC2
:101A200089B09B460446002506E025280BD05A467F
:101A30000B999047641C6D1C20780028F5D10DB0DF
:101A40002846BDE8F08F0027B8460122474900E04C
:101A5000074314F8013F203B02FA03F00842F7D194
:101A600020782E2819D114F8010F47F004072A28EE
:101A70000ED06FF02F022078A0F1300109290CD888
:101A800008EB880102EB410100EB0108641CF2E75E
:101A90000A98641C50F8048B0A9020780028CED055
:101AA000642808D0692806D075281ED05A460B999C
:101AB00090476D1C58E00A994FF00A0901C90A9134
:101AC000002802DA40422D2102E0390504D52B21FD
:101AD0008DF82010012103E0F90704D02021F7E759
:101AE0008A4608AE0DE00021FAE70A994FF00A098C
:101AF00001C90A91F7E74946FEF7E3FB303106F8E2
:101B0000011D0028F7D1ADEB060000F12009780790
:101B100001D44FF00108C84502DDA8EB090000E040
:101B200000208046002706E008A85A46C05D0B99B1
:101B300090476D1C7F1C5745F6DB04E030205A4669
:101B40000B9990476D1CB8F10001A8F10108F5DC74
:101B500005E016F8010B5A460B9990476D1CB9F138
:101B60000001A9F10109F4DC641C65E70928010002
:101B700010B5044605484FF47A73014604700122FB
:101B80000348FFF779FB204610BD0000100000203D
:101B90007400002010B5002821D0114B0022001F36
:101BA000196803E0814203D80A4649680029F9D13F
:101BB00052B11368841A9C4204D100681844106022
:101BC000104602E0506000E0186039B102680B1A5C
:101BD000934203D10B681A4402604968416010BD0A
:101BE0001800002008B5FEF7CDFFFFF71DFEFFF738
:101BF000A3FDFFF7D7FDFFF7F5FD2349234800F0CC
:101C00009AF8224800F048F9204800F079F80723B4
:101C1000012203211D4800F08FF901211B4800F02B
:101C2000CFF90021194800F05CF90121174800F0B4
:101C3000F6F9174C1548214600F092F92146134851
:101C400000F0A6F90321114800F0D0F901210F4856
:101C500000F02CF901210D4800F058F901210B4842
:101C600000F05FF900200146009001236A46074812
:101C700000F0A0F8054800F05BF80028FAD003480F
:101C800000F06AF8F6E7000020000020BC00002009
:101C90006666C640F0B50B30154D20F007010024F4
:101CA000144A0FE003688B420BD38B4205D95E1AAE
:101CB00043184768C3E9006700E04368136002C047
:101CC00004E0021D10680028ECD12046002802D153
:101CD000286808B10020F0BD064A07481060074A8E
:101CE000121A22F00702C0E9002401202860D7E779
:101CF0001C00002018000020CC010020C803002098
:101D000038B5044600208DF8000003236A460421FC
:101D1000204600F099F903236A460621204600F088
:101D200093F903236A460521204600F08DF938BD5A
:101D300090F80401704710B501600446002084F853
:101D400004018021201DFEF716FA04F18400BDE88D
:101D500010408021FEF70FBA3EB50025044602234D
:101D60006A462946009500F025F89DF80000C00954
:101D700002D0204600F037F89DF801004008C00767
:101D800004D002AA01A9204600F076F884F8045194
:101D90003EBD012180F80411704700000A4601464B
:101DA00001A0FFF70BBE000069723D25752C723D46
:101DB00025752C002DE9FC414FF47A758DF804103F
:101DC0001E461746044600950068012301AAAE216D
:101DD000FEF70CFE009533463A46AE212068FEF72A
:101DE000DDFCBDE8FC817FB5064600208DF80000D3
:101DF0008DF8040001236A4604213046FFF7DAFF1C
:101E0000012301AA06213046FFF7D4FF9DF8000008
:101E10009DF80410401A45B2012D01DA20356DB24B
:101E2000002426E0062302AA07213046FFF7C2FF5E
:101E30009DF808009DF80910000440EA01209DF873
:101E40000A109DF80C2008439DF80B10C0F31100F8
:101E5000090441EA02219DF80D20114306EB84029A
:101E6000C1F31101C2F884105060FFF797FF641CA2
:101E700064B2AC42D6DB7FBD70B514460A46054657
:101E800001231F21FFF796FF22462846BDE8704038
:101E900001232021FFF78EBF08B540218DF80010E7
:101EA00001236A46092100F0CFF808BD38B5054680
:101EB00000200C468DF8000001236A4602212846C6
:101EC000FFF778FF9DF80000012320F0800141EA30
:101ED000C4108DF800006A460221284600F0B4F8CC
:101EE00038BD38B50C46054601236A460A21FFF77E
:101EF00061FF9DF80010012364F35F118DF800105D
:101F00006A460A21284600F09FF838BD08B5C9077F
:101F1000890F8DF8001001236A46212100F094F802
:101F200008BD08B5C907890F8DF8001001236A465E
:101F3000032100F089F808BD38B5002444EA4111B6
:101F400002F0010241EA021103F00F020A438DF888
:101F5000002001236A46082100F076F838BD000011
:101F600038B504460846FEF799F9074A074BFEF7CD
:101F70000DF9FEF77AF98DF8000001236A460C216D
:101F8000204600F061F838BD9A9999999999C93F0E
:101F900038B504460846FEF781F9074A074BFEF7B5
:101FA000F5F8FEF762F98DF8000001236A460D216D
:101FB000204600F049F838BD9A9999999999C93FF6
:101FC00038B50C46054601236A460A21FFF7F2FEA2
:101FD0009DF80000012300F07C0020438DF80000F4
:101FE0006A460A21284600F02FF838BD38B50C465D
:101FF000054601236A460921FFF7DCFE9DF8000033
:10200000012300F0F80020438DF800006A46092102
:10201000284600F019F82846FFF772FE38BD38B59B
:10202000044601236A460A21FFF7C4FE9DF800001A
:102030008C2101EA80008DF8000001236A460A2104
:10204000204600F001F838BD2DE9F84380461C46D3
:1020500016460F46581CFFF71DFE054607702EB1A9
:1020600024B122463146681CFEF76CF84FF47A70B2
:10207000641C0090A3B22A46AE21D8F80000FEF7F7
:10208000B5FC2846BDE8F843FFF784BD0102020312
:102090000405060708090A0B0C0D0E0F10100000AE
:1020A0000000000000000102030406070809000008
:1020B0000000010203040000D820000800000020F6
:1020C00020000000FC190008F82000082000002073
:1020D000A80700000C1A0008010000001000000012
:1020E000000000000024F4000000000000000000D8
:0820F0000000000000000000E8
:04000005080000ED02
:00000001FF
