:020000040000FA
:10000000E0110020D5000000ED460000953B000007
:1000100000000000000000000000000000000000E0
:10002000000000000000000000000000E1490000A6
:100030000000000000000000CB470000194A00004B
:10004000954F0000C1460000DD49000089350000E1
:10005000ED0000001B3600001D36000025360000B4
:1000600027360000552E0000E52E0000692F000005
:10007000350B0000FD250000754E0000774E000096
:10008000E1380000E338000000000000000000003C
:10009000012600008528000087280000993B000009
:1000A00000000000DF490000000000007D4A000061
:1000B0007F4A0000B94A0000FF250000ED00000063
:1000C0000348854600F07EFC00480047A55100002B
:1000D000E011002006490868854606488047064822
:1000E0000047FEE7FEE7FEE7FEE7FEE7FEE700006B
:1000F00000000000414A0000C100000030B50B467E
:10010000014600202022012409E00D46D5409D42F1
:1001100005D31D469540491B254695404019154677
:10012000521E002DF1DC30BD70B50024254600289C
:1001300001DA01244042002901DA01254942FFF792
:10014000DDFFAC4200D04042002C00D0494270BDDF
:1001500003460B439B0703D009E008C9121F08C0E0
:10016000042AFAD203E00B780370401C491C521E8B
:10017000F9D27047F8B502464A40D40F42004B000E
:1001800052085B089A4202D20246084611464A00CB
:1001900023D0C30D4A00DDB2120EAD1A202D35DA80
:1001A00049020126490AF6058A19002C00D052425C
:1001B00020214F1B1146B9402A411018C20D9A4206
:1001C00021D0002C17D0012D08DCDA05801AD20FBF
:1001D0008019D207DBB200F00BFBF8BDDA05801AFC
:1001E000012340001B06C01880185A428018CA0F0D
:1001F0001043490007E04908C2071143DA05801A95
:1002000080194008801800F0EBFAF8BD6100012267
:10021000511A001BF7E70122D2075140AAE7012239
:10022000D2075040A6E7024670B54A40D30FDB071D
:1002300040002DD04A002AD0010E140E00021202F6
:100240000919400A520A8418E50104465443000A79
:10025000120A2E045043A4194219200CC543AA18AF
:10026000120C0125AD03521C521912047F392404CB
:1002700000D0521C104301D44000491EC2B20C06EB
:10028000C0092018401C4008802A02D003E000204A
:1002900070BD40084000002900DA0020184370BDFE
:1002A00070B502464A40D50F40004A00ED074008AD
:1002B0005208002814D0002A12D0C40DD30D4102D8
:1002C0000120C0055202490A520AE41A09181218FC
:1002D0007D34914201D3641C00E04900002C01DA16
:1002E000002070BD0023914201D3891A03434008C6
:1002F00049000028F7D100290AD0914202D10121FA
:10030000C90705E0914201D2012101E00121C94361
:10031000E005C018401900F063FA70BDF0B507465B
:100320000846584087B0C00F049048000E46590058
:1003300040084908BC1A884105D2384631461E4655
:1003400017460B4602465800400810434CD0300D6B
:10035000039040055900400D490D0590401A029048
:10036000402872DA18030121000B090508430190A7
:1003700004980092002805D001995242002088413B
:1003800000920190029840210A1A0199009800F009
:10039000F3F905460C466B4607CB00F00EFAC01980
:1003A0007141039A0E0D0023D71756401A467A4022
:1003B000164344D0049A002A2DD0029A012A039AA7
:1003C00015DC1205C01A914101263605001C714149
:1003D000D20F059ED2070093019202962A46234629
:1003E00000F04CFA07B0F0BD38463146FAE7160582
:1003F000224A0F46B218C01AB74101210905001C54
:100400004F4100187F41114618187941E20F1043FF
:100410006D19644113E0E2076D0815436408C207D3
:100420001443039A01261205C01A91413605001C97
:100430007141CE07400830434908C01851412A464F
:10044000234600F00EFACDE7FFE7049801224000B2
:10045000C117121A00238B4104983146C417381A69
:10046000A141EEE730B40124E407634030BC55E716
:1004700030B40124E407614030BC4FE70000E0FFE6
:10048000F0B51FB488B00B99099800244840099929
:10049000C00F490049080991C0070B990090490015
:1004A00049080B9109990898A64608431CD00B9956
:1004B0000A98084318D0099801244000420D4800CA
:1004C000410D099824050003000B204309900B9867
:1004D0000003000B20430B9050181C4940180022C9
:1004E00001901446104605E0002001460DB0F0BD15
:1004F000032801DA034600E003239C46C11A0AAE32
:100500000AE05F0008ADED5B4F00F75B7D4300271D
:10051000AA187C41491C5B1E6145F2DD410004AB19
:100520005A522104120C0A43240C401C0828DFDB19
:10053000019802900099704601910090059B049AE1
:100540000799069800F09AF9D0E700000DFCFFFF2C
:10055000F0B50C465C4085B0E40FE40703944C0012
:100560000026640859009446490802460296224330
:1005700021D062460A431ED06200570D4A000E0386
:100580002303550D012402462C492405781B1B0B1F
:10059000360B401823432643614600901C46501AF0
:1005A000B44103D30098401C009002E092180098D8
:1005B0005B41002803DA0020014605B0F0BD0020B1
:1005C000012109050746864611E064461D46141BB5
:1005D000B54106D36546521BB341744607430C43ED
:1005E000A646CD0740084908284392185B410546B6
:1005F0000D43EAD11046184313D0604619465040C7
:100600007140084306D06046101AB34106D2012259
:10061000002306E000220123DB0702E00122D2438F
:100620005310009874460105381C6141029C039DDB
:100630000019694100F015F9BFE70000FD03000053
:10064000C217C10F504010B54018CA0796230021A9
:1006500000F0CEF810BD10B500229623114600F030
:10066000C7F810BD0EB5C217C10F5040CA074018D9
:100670000021054B0293019200910A460B4600F0BF
:10068000FDF803B000BD000033040000410040024B
:100690000122400AD205090E80187F2901DA0020C4
:1006A0007047962903DC9622511AC8407047963944
:1006B000884070474A0009030123090B1B051943B1
:1006C000094B10B5520D9A4201DA002010BD064BBD
:1006D00034339A4203DC9A1A00F05EF810BD0349E5
:1006E0005118884010BD0000FF030000CDFBFFFF44
:1006F000C20FD207400040080BD0C10D0723DB0119
:10070000C91840020905400A1143C20840071143B5
:100710007047002001467047CB0FDB07490010B53A
:10072000490802460A4307D00A0D07240903E401D9
:10073000090B121B002A01DC002010BDC900440F68
:100740000C43C100E018D205801800F049F810BD34
:100750000122D207002800DB101A002900DB511A01
:10076000814270470122D207002800DB101A0029BD
:1007700000DB511A8842704710B5202A04DB01467D
:10078000203A9140002010BD914020239C1A03463E
:10079000E3401943904010BD10B5202A04DB084601
:1007A000203AD040002110BD0B46D340D040202439
:1007B000A21A91400843194610BD10B5202A06DB45
:1007C000CB170846203A1041C1170B4306E00B46F1
:1007D0001341D0402024A21A91400843194610BD6D
:1007E000002904DA401C490001D14008400070474C
:1007F00070B40024050C05D11024000402D1002996
:1008000021D01124050E01D100020834050F01D1B9
:100810000001241D850F01D18000A41C002801DBEC
:100820004000641C002908D020252E1B0D46F540F1
:10083000A14000D001212943084301061B1B000AE7
:10084000DB1D02D5002070BC7047DB05181880182E
:100850000029F8DA401C4900F5D170BC400840007E
:10086000704710B5002B08DA0024401C6141921833
:100870005B411A4301D14008400010BDF0B51FB4E0
:1008800082B005460C0003D0084604F095FB02E058
:1008900004F092FB20300246009021462846FFF7E4
:1008A0006BFF049B059A04460F4618431143084307
:1008B00014D0184610431BD0009840210A1A18463D
:1008C0000599FFF769FF05460E46009A05990498B9
:1008D000FFF752FF084305D0012004E020463946C7
:1008E00007B0F0BD0020C11705430E432C4337432A
:1008F00000990E986305401A7905E40A00220C431A
:10090000FD0A0A3002D500200146E9E70105101969
:1009100069410C9C0D9D00196941FFF7A2FFDFE7BB
:10092000FEB500231A461B1A8A4103DB002001464C
:1009300003B0F0BD4A000D0301212D0B0905520D36
:100940000D43D10702D100186D41521E5110FF31E5
:10095000FF310131002704463E4638460097019199
:100960000246012100200905FFF716FFC319714156
:10097000F818324684468E464A4161462846611A36
:10098000904104D36046241A954176461F462419A7
:1009900000986D41401C00903428E1DDF919304683
:1009A0007041091BA84103D20022D243134601E043
:1009B0000022134601980105381C7141FFF751FFD1
:1009C000B6E70000064C0125064E05E0E36807CCBB
:1009D0002B430C3C98471034B442F7D3FFF774FB19
:1009E000347000005470000070B58D180478401CFD
:1009F000A207920F01D10278401C231106D103787F
:100A0000401C03E006780E70401C491C521EF9D1B0
:100A1000002B15D002780C268A1A3440401C0C2C6E
:100A200003D0A401121B9B1C08E004782402121BB3
:100A3000401CF8E714780C70491C521C5B1EF9D559
:100A4000A942D3D3002070BD034989680222914393
:100A50000143014A916070470024014000B59DB0F8
:100A600000201B9015901A90012040031890082038
:100A700014900320C002169000201990C0201790F7
:100A8000242214A90BA8FFF763FB00200990012082
:100A900008900004019080100A9001A800F086F9E7
:100AA0000020FFF7D1FF00F003F81DB000BD0000EB
:100AB00010B506480068012108430449086000BFDA
:100AC000802000F005F80028FAD010BD0024014075
:100AD00010B50446802C0DD0402C0BD0202C09D012
:100AE000102C07D0082C05D0042C03D0022C01D0E8
:100AF000012C00D103E0612105A004F03FFB0C486C
:100B0000C0682040002801D0012010BD0020FCE773
:100B10004C69627261726965735C7372635C63775E
:100B200033326C3033315F6164632E630000000048
:100B3000402401407047000010B50446206800289A
:100B400011D0206802280ED0206804280BD020681D
:100B5000062808D02068082805D020680A2802D076
:100B600020680C2800D103E0C42166A004F006FB35
:100B70006068002821D0FF210131606888421CD0C4
:100B800049006068884218D00321090260688842E1
:100B900013D001218902606888420ED00521090224
:100BA0006068884209D0032149026068884204D005
:100BB000072109026068884200D103E0C52151A0E5
:100BC00004F0DCFAA06800280DD00121C902A06859
:100BD000884208D04900A068884204D00321C90295
:100BE000A068884200D103E0C62146A004F0C6FAFE
:100BF000E068002808D0E068402805D0E068802838
:100C000002D0E068C02800D103E0C7213DA004F075
:100C1000B5FA2069002804D00121490320698842DF
:100C200000D103E0C82137A004F0A8FA60690028C9
:100C300002D06069202800D103E0C92131A004F06E
:100C40009DFAA069002804D00121C903A069884247
:100C500000D103E0CA212BA004F090FAE06900283B
:100C600002D0E069402800D103E0CB2125A004F0A8
:100C700085FA206A002804D0FF210131206A8842C9
:100C800000D103E0CC211FA004F078FAA16820690C
:100C9000084361680843E1680843616908432168C3
:100CA000084320490968204A114008431D4908604B
:100CB000E169A06908431B4949681C4A114008437F
:100CC00018494860206A00280BD0084600690321B3
:100CD0000902884301225202216A11430843114943
:100CE0000861E06880280CD11148006B202108437E
:100CF0000F4908630F48C06940084000401C0D4977
:100D0000C86110BD4C69627261726965735C73720F
:100D1000635C637733326C3033315F6164632E63BD
:100D2000000000000024014011C0FFFFBF7FFFFF53
:100D3000000001400004004810B50446002C00D11A
:100D400010BD20462830FFF7F7FE206881B2002949
:100D500028D10014030004F046F90805090D111507
:100D6000191D2125204601F0A9FB1CE0204600F0BA
:100D7000ADF818E0204600F085F914E0204600F0B8
:100D800099FA10E0204600F0E7FB0CE0204600F066
:100D900075FD08E0204600F03FFF04E0204601F02A
:100DA00045F900E000BF00BF00BFC9E710B5044629
:100DB0002046FFF7C1FF044800680E218843083031
:100DC0000149086010BD00000024014010B5044630
:100DD000002C1DD0012C1BD0022C19D0032C17D0B5
:100DE000042C15D0052C13D0062C11D0072C0FD0B5
:100DF000082C0DD0092C0BD00A2C09D00B2C07D0B5
:100E00000C2C05D00D2C03D00E2C01D00F2C00D1B2
:100E100003E00D490DA004F0B1F90D2C03D00E2C08
:100E200001D00F2C06D11148006801214903084365
:100E30000E4908600E2C05D10C480068202108439B
:100E40000A49086010BD0000610200004C6962722E
:100E500061726965735C7372635C637733326C30A3
:100E600033315F6164632E630000000000240140A1
:100E700010B50446002C01D0012C00D104E0FF2164
:100E8000573109A004F07AF9002C06D00E4880688A
:100E9000012108430C49886005E00B488068400840
:100EA00040000949886010BD4C69627261726965D1
:100EB000735C7372635C637733326C3033315F61C0
:100EC00064632E63000000000024014010B5044656
:100ED000206A00282CD0206A012829D0206A022804
:100EE00026D0206A032823D0206A042820D0206A34
:100EF00005281DD0206A06281AD0206A072817D096
:100F0000206A082814D0206A092811D0206A0A28EB
:100F10000ED0206A0B280BD0206A0C2808D0206A3B
:100F20000D2805D0206A0E2802D0206A0F2800D193
:100F300003E0494949A004F021F9E06900282CD0D8
:100F4000E069012829D0E069022826D0E069032859
:100F500023D0E069042820D0E06905281DD0E0698D
:100F600006281AD0E069072817D0E069082814D0AD
:100F7000E069092811D0E0690A280ED0E0690B2841
:100F80000BD0E0690C2808D0E0690D2805D0E06995
:100F90000E2802D0E0690F2800D104E02E49491C38
:100FA0002EA004F0EBF82068002821D001210904CC
:100FB000206888421CD049002068884218D003214C
:100FC00009042068884213D00121890420688842DE
:100FD0000ED0052109042068884209D00321490464
:100FE0002068884204D0072109042068884200D183
:100FF00004E0A521890019A004F0C0F8606A002867
:1010000004D001218903606A884200D104E01249BA
:10101000C91C12A004F0B2F8E16909012068084374
:10102000216A084315490969154A114008431349C3
:101030000861124840384068012189038843616A89
:1010400008430E4940394860206AFFF7BFFEE06957
:10105000FFF7BCFE10BD0000920200004C696272F6
:1010600061726965735C7372635C637733326C3091
:1010700033315F6164632E6300000000402401404F
:1010800000FFF8FF10B50446206A00282CD0206A23
:10109000012829D0206A022826D0206A032823D0DC
:1010A000206A042820D0206A05281DD0206A06283E
:1010B0001AD0206A072817D0206A082814D0206A7E
:1010C000092811D0206A0A280ED0206A0B280BD0DC
:1010D000206A0C2808D0206A0D2805D0206A0E2826
:1010E00002D0206A0F2800D103E0674967A004F00E
:1010F00045F8E06900282CD0E069012829D0E06992
:10110000022826D0E069032823D0E069042820D0F3
:10111000E06905281DD0E06906281AD0E069072893
:1011200017D0E069082814D0E069092811D0E069D7
:101130000A280ED0E0690B280BD0E0690C2808D0F3
:10114000E0690D2805D0E0690E2802D0E0690F287B
:1011500000D104E04C49491C4CA004F00FF8A069F0
:1011600000282CD0A069012829D0A069022826D007
:10117000A069032823D0A069042820D0A0690528ED
:101180001DD0A06906281AD0A069072817D0A06929
:10119000082814D0A069092811D0A0690A280ED007
:1011A000A0690B280BD0A0690C2808D0A0690D28D5
:1011B00005D0A0690E2802D0A0690F2800D104E054
:1011C0002B21090131A003F0D9FF2068002821D08C
:1011D00001210904206888421CD049002068884207
:1011E00018D0032109042068884213D00121890402
:1011F000206888420ED0052109042068884209D061
:10120000032149042068884204D00721090420688A
:10121000884200D104E01C49C91C1CA003F0AEFFA9
:10122000606A002804D001218903606A884200D1E5
:1012300004E01549091D15A003F0A0FFA1690902EA
:1012400020680843E16909010843216A08431749F6
:101250000969174A11400843144908611348403886
:101260004068012189038843616A08430F49403976
:101270004860206AFFF7AAFDE069FFF7A7FDA069B3
:10128000FFF7A4FD10BD0000AE0200004C696272C1
:1012900061726965735C7372635C637733326C305F
:1012A00033315F6164632E6300000000402401401D
:1012B00000F0F8FF10B50446206A00282CD0206A00
:1012C000012829D0206A022826D0206A032823D0AA
:1012D000206A042820D0206A05281DD0206A06280C
:1012E0001AD0206A072817D0206A082814D0206A4C
:1012F000092811D0206A0A280ED0206A0B280BD0AA
:10130000206A0C2808D0206A0D2805D0206A0E28F3
:1013100002D0206A0F2800D103E0854985A003F0A0
:101320002DFFE06900282CD0E069012829D0E06970
:10133000022826D0E069032823D0E069042820D0C1
:10134000E06905281DD0E06906281AD0E069072861
:1013500017D0E069082814D0E069092811D0E069A5
:101360000A280ED0E0690B280BD0E0690C2808D0C1
:10137000E0690D2805D0E0690E2802D0E0690F2849
:1013800000D104E06A49491C6AA003F0F7FEA06995
:1013900000282CD0A069012829D0A069022826D0D5
:1013A000A069032823D0A069042820D0A0690528BB
:1013B0001DD0A06906281AD0A069072817D0A069F7
:1013C000082814D0A069092811D0A0690A280ED0D5
:1013D000A0690B280BD0A0690C2808D0A0690D28A3
:1013E00005D0A0690E2802D0A0690F2800D104E022
:1013F0002D2109014FA003F0C1FE606900282CD007
:101400006069012829D06069022826D06069032814
:1014100023D06069042820D0606905281DD0606948
:1014200006281AD06069072817D06069082814D0E8
:101430006069092811D060690A280ED060690B28FC
:101440000BD060690C2808D060690D2805D0606950
:101450000E2802D060690F2800D104E03449C91C6D
:1014600034A003F08BFE2068002821D0012109045C
:10147000206888421CD049002068884218D0032187
:1014800009042068884213D0012189042068884219
:101490000ED0052109042068884209D0032149049F
:1014A0002068884204D0072109042068884200D1BE
:1014B00004E01F49091D1FA003F060FE606A0028B8
:1014C00004D001218903606A884200D104E01849F0
:1014D000491D18A003F052FE616909032068084302
:1014E000A16909020843E16909010843216A084327
:1014F00018490969C90CC904084316490861154807
:1015000040384068012189038843616A08431149D2
:1015100040394860206AFFF759FCE069FFF756FC44
:10152000A069FFF753FC6069FFF750FC10BD000095
:10153000CE0200004C69627261726965735C7372FD
:10154000635C637733326C3033315F6164632E6385
:10155000000000004024014010B50446206A002825
:101560002CD0206A012829D0206A022826D0206A9F
:10157000032823D0206A042820D0206A05281DD003
:10158000206A06281AD0206A072817D0206A08285F
:1015900014D0206A092811D0206A0A280ED0206AA7
:1015A0000B280BD0206A0C2808D0206A0D2805D003
:1015B000206A0E2802D0206A0F2800D103E0A54936
:1015C000A5A003F0DBFDE06900282CD0E06901282C
:1015D00029D0E069022826D0E069032823D0E069F9
:1015E000042820D0E06905281DD0E06906281AD01B
:1015F000E069072817D0E069082814D0E0690928B5
:1016000011D0E0690A280ED0E0690B280BD0E06900
:101610000C2808D0E0690D2805D0E0690E2802D01A
:10162000E0690F2800D104E08A49491C8AA003F030
:10163000A5FDA06900282CD0A069012829D0A069A7
:10164000022826D0A069032823D0A069042820D02E
:10165000A06905281DD0A06906281AD0A06907280E
:1016600017D0A069082814D0A069092811D0A06952
:101670000A280ED0A0690B280BD0A0690C2808D02E
:10168000A0690D2805D0A0690E2802D0A0690F28F6
:1016900000D104E06F49891C6FA003F06FFD606901
:1016A00000282CD06069012829D06069022826D042
:1016B0006069032823D06069042820D06069052868
:1016C0001DD0606906281AD06069072817D06069A4
:1016D000082814D06069092811D060690A280ED042
:1016E00060690B280BD060690C2808D060690D2850
:1016F00005D060690E2802D060690F2800D104E08F
:10170000BD21890054A003F039FD206900282CD0A8
:101710002069012829D02069022826D020690328C1
:1017200023D02069042820D0206905281DD02069F5
:1017300006281AD02069072817D02069082814D055
:101740002069092811D020690A280ED020690B28A9
:101750000BD020690C2808D020690D2805D02069FD
:101760000E2802D020690F2800D104E03949091D54
:1017700039A003F003FD2068002821D001210904CD
:10178000206888421CD049002068884218D0032174
:1017900009042068884213D0012189042068884206
:1017A0000ED0052109042068884209D0032149048C
:1017B0002068884204D0072109042068884200D1AB
:1017C00004E02449491D24A003F0D8FC606A0028E5
:1017D00004D001218903606A884200D104E01D49D8
:1017E000891D1DA003F0CAFC616909032068084334
:1017F000A16909020843E16909010843216A084314
:101800001D490969C90CC90408431B4908610846F8
:1018100040690009000121690843174948611648D9
:1018200040384068012189038843616A08431249AE
:1018300040394860206AFFF7C9FAE069FFF7C6FA45
:10184000A069FFF7C3FA6069FFF7C0FA2069FFF7E4
:10185000BDFA10BDF10200004C69627261726965E7
:10186000735C7372635C637733326C3033315F6106
:1018700064632E63000000004024014010B504465C
:10188000206A00282CD0206A012829D0206A02284A
:1018900026D0206A032823D0206A042820D0206A7A
:1018A00005281DD0206A06281AD0206A072817D0DC
:1018B000206A082814D0206A092811D0206A0A2832
:1018C0000ED0206A0B280BD0206A0C2808D0206A82
:1018D0000D2805D0206A0E2802D0206A0F2800D1DA
:1018E00003E0C349C3A003F049FCE06900282CD001
:1018F000E069012829D0E069022826D0E0690328A0
:1019000023D0E069042820D0E06905281DD0E069D3
:1019100006281AD0E069072817D0E069082814D0F3
:10192000E069092811D0E0690A280ED0E0690B2887
:101930000BD0E0690C2808D0E0690D2805D0E069DB
:101940000E2802D0E0690F2800D104E0A849491C04
:10195000A8A003F013FCA06900282CD0A0690128DE
:1019600029D0A069022826D0A069032823D0A06925
:10197000042820D0A06905281DD0A06906281AD007
:10198000A069072817D0A069082814D0A0690928E1
:1019900011D0A0690A280ED0A0690B280BD0A0692D
:1019A0000C2808D0A0690D2805D0A0690E2802D007
:1019B000A0690F2800D104E08D49891C8DA003F097
:1019C000DDFB606900282CD06069012829D060699E
:1019D000022826D06069032823D06069042820D01B
:1019E000606905281DD0606906281AD0606907283B
:1019F00017D06069082814D06069092811D060697F
:101A00000A280ED060690B280BD060690C2808D01A
:101A100060690D2805D060690E2802D060690F2822
:101A200000D104E0C721890072A003F0A7FB206960
:101A300000282CD02069012829D02069022826D02E
:101A40002069032823D02069042820D02069052894
:101A50001DD0206906281AD02069072817D02069D0
:101A6000082814D02069092811D020690A280ED02E
:101A700020690B280BD020690C2808D020690D287C
:101A800005D020690E2802D020690F2800D104E07B
:101A90005749091D57A003F071FBE06800282CD0BE
:101AA000E068012829D0E068022826D0E0680328F1
:101AB00023D0E068042820D0E06805281DD0E06825
:101AC00006281AD0E068072817D0E068082814D044
:101AD000E068092811D0E0680A280ED0E0680B28D9
:101AE0000BD0E0680C2808D0E0680D2805D0E0682D
:101AF0000E2802D0E0680F2800D104E03C49491DBF
:101B00003CA003F03BFB2068002821D00121090400
:101B1000206888421CD049002068884218D00321E0
:101B200009042068884213D0012189042068884272
:101B30000ED0052109042068884209D003214904F8
:101B40002068884204D0072109042068884200D117
:101B500004E02749891D27A003F010FB606A0028D4
:101B600004D001218903606A884200D104E0192170
:101B7000490120A003F002FB6169090320680843C2
:101B8000A16909020843E16909010843216A084380
:101B900020490969C90CC90408431E490861E06865
:101BA0000001216908431B494969090A09020843E0
:101BB0001849486117484038406801218903884323
:101BC000616A0843134940394860206AFFF7FEF80C
:101BD000E069FFF7FBF8A069FFF7F8F86069FFF725
:101BE000F5F82069FFF7F2F8E068FFF7EFF810BDAD
:101BF000190300004C69627261726965735C7372EB
:101C0000635C637733326C3033315F6164632E63BE
:101C1000000000004024014010B50446206A00285E
:101C20002CD0206A012829D0206A022826D0206AD8
:101C3000032823D0206A042820D0206A05281DD03C
:101C4000206A06281AD0206A072817D0206A082898
:101C500014D0206A092811D0206A0A280ED0206AE0
:101C60000B280BD0206A0C2808D0206A0D2805D03C
:101C7000206A0E2802D0206A0F2800D103E0E14933
:101C8000E1A003F07BFAE06900282CD0E06901288C
:101C900029D0E069022826D0E069032823D0E06932
:101CA000042820D0E06905281DD0E06906281AD054
:101CB000E069072817D0E069082814D0E0690928EE
:101CC00011D0E0690A280ED0E0690B280BD0E0693A
:101CD0000C2808D0E0690D2805D0E0690E2802D054
:101CE000E0690F2800D104E0C649491CC6A003F0F2
:101CF00045FAA06900282CD0A069012829D0A06944
:101D0000022826D0A069032823D0A069042820D067
:101D1000A06905281DD0A06906281AD0A069072847
:101D200017D0A069082814D0A069092811D0A0698B
:101D30000A280ED0A0690B280BD0A0690C2808D067
:101D4000A0690D2805D0A0690E2802D0A0690F282F
:101D500000D104E0AB49891CABA003F00FFA606925
:101D600000282CD06069012829D06069022826D07B
:101D70006069032823D06069042820D060690528A1
:101D80001DD0606906281AD06069072817D06069DD
:101D9000082814D06069092811D060690A280ED07B
:101DA00060690B280BD060690C2808D060690D2889
:101DB00005D060690E2802D060690F2800D104E0C8
:101DC0006921C90090A003F0D9F9206900282CD01E
:101DD0002069012829D02069022826D020690328FB
:101DE00023D02069042820D0206905281DD020692F
:101DF00006281AD02069072817D02069082814D08F
:101E00002069092811D020690A280ED020690B28E2
:101E10000BD020690C2808D020690D2805D0206936
:101E20000E2802D020690F2800D104E07549091D51
:101E300075A003F0A3F9E06800282CD0E068012821
:101E400029D0E068022826D0E068032823D0E06883
:101E5000042820D0E06805281DD0E06806281AD0A4
:101E6000E068072817D0E068082814D0E06809283F
:101E700011D0E0680A280ED0E0680B280BD0E0688B
:101E80000C2808D0E0680D2805D0E0680E2802D0A4
:101E9000E0680F2800D104E05A49491D5AA003F018
:101EA0006DF9A06800282CD0A068012829D0A0686E
:101EB000022826D0A068032823D0A068042820D0B8
:101EC000A06805281DD0A06806281AD0A068072899
:101ED00017D0A068082814D0A068092811D0A068DD
:101EE0000A280ED0A0680B280BD0A0680C2808D0B8
:101EF000A0680D2805D0A0680E2802D0A0680F2881
:101F000000D104E03F49891D3FA003F037F9206864
:101F1000002821D001210904206888421CD04900F2
:101F20002068884218D0032109042068884213D011
:101F300001218904206888420ED005210904206807
:101F4000884209D0032149042068884204D007212F
:101F500009042068884200D104E0D32189002AA026
:101F600003F00CF9606A002804D001218903606A3B
:101F7000884200D104E02349083123A003F0FEF891
:101F80006169090320680843A16909020843E169FE
:101F900009010843216A084323490969C90CC90496
:101FA000084321490861A0680002E168090108436B
:101FB000216908431C494969090B090308431A4967
:101FC0004861194840384068012189038843616AA3
:101FD0000843154940394860206AFEF7F7FEE0697A
:101FE000FEF7F4FEA069FEF7F1FE6069FEF7EEFE73
:101FF0002069FEF7EBFEE068FEF7E8FEA068FEF75A
:10200000E5FE10BD450300004C69627261726965AE
:10201000735C7372635C637733326C3033315F614E
:1020200064632E63000000004024014010B50446A4
:10203000206A00282CD0206A012829D0206A022892
:1020400026D0206A032823D0206A042820D0206AC2
:1020500005281DD0206A06281AD0206A072817D024
:10206000206A082814D0206A092811D0206A0A287A
:102070000ED0206A0B280BD0206A0C2808D0206ACA
:102080000D2805D0206A0E2802D0206A0F2800D122
:1020900003E0FE49FEA003F071F8E06900282CD0AF
:1020A000E069012829D0E069022826D0E0690328E8
:1020B00023D0E069042820D0E06905281DD0E0691C
:1020C00006281AD0E069072817D0E069082814D03C
:1020D000E069092811D0E0690A280ED0E0690B28D0
:1020E0000BD0E0690C2808D0E0690D2805D0E06924
:1020F0000E2802D0E0690F2800D104E0E349491C12
:10210000E3A003F03BF8A06900282CD0A0690128C7
:1021100029D0A069022826D0A069032823D0A0696D
:10212000042820D0A06905281DD0A06906281AD04F
:10213000A069072817D0A069082814D0A069092829
:1021400011D0A0690A280ED0A0690B280BD0A06975
:102150000C2808D0A0690D2805D0A0690E2802D04F
:10216000A0690F2800D104E0C849891CC8A003F069
:1021700005F8606900282CD06069012829D06069C1
:10218000022826D06069032823D06069042820D063
:10219000606905281DD0606906281AD06069072883
:1021A00017D06069082814D06069092811D06069C7
:1021B0000A280ED060690B280BD060690C2808D063
:1021C00060690D2805D060690E2802D060690F286B
:1021D00000D104E06F21C900ADA002F0CFFF20695B
:1021E00000282CD02069012829D02069022826D077
:1021F0002069032823D02069042820D020690528DD
:102200001DD0206906281AD02069072817D0206918
:10221000082814D02069092811D020690A280ED076
:1022200020690B280BD020690C2808D020690D28C4
:1022300005D020690E2802D020690F2800D104E0C3
:102240009249091D92A002F099FFE06800282CD065
:10225000E068012829D0E068022826D0E068032839
:1022600023D0E068042820D0E06805281DD0E0686D
:1022700006281AD0E068072817D0E068082814D08C
:10228000E068092811D0E0680A280ED0E0680B2821
:102290000BD0E0680C2808D0E0680D2805D0E06875
:1022A0000E2802D0E0680F2800D104E07749491DCC
:1022B00077A002F063FFA06800282CD0A068012856
:1022C00029D0A068022826D0A068032823D0A068BF
:1022D000042820D0A06805281DD0A06806281AD0A0
:1022E000A068072817D0A068082814D0A06809287B
:1022F00011D0A0680A280ED0A0680B280BD0A068C7
:102300000C2808D0A0680D2805D0A0680E2802D09F
:10231000A0680F2800D104E05C49891D5CA002F090
:102320002DFF606800282CD06068012829D06068E3
:10233000022826D06068032823D06068042820D0B3
:10234000606805281DD0606806281AD060680728D4
:1023500017D06068082814D06068092811D0606818
:102360000A280ED060680B280BD060680C2808D0B3
:1023700060680D2805D060680E2802D060680F28BC
:1023800000D104E0DF21890041A002F0F7FE2068BF
:10239000002821D001210904206888421CD049006E
:1023A0002068884218D0032109042068884213D08D
:1023B00001218904206888420ED005210904206883
:1023C000884209D0032149042068884204D00721AB
:1023D00009042068884200D104E02C4908312CA06F
:1023E00002F0CCFE606A002804D001218903606AF3
:1023F000884200D104E02549093125A002F0BEFE43
:102400006169090320680843A16909020843E16979
:1024100009010843216A084325490969C90CC9040F
:1024200008432349086160680003A1680902084362
:10243000E16809010843216908431D494969090CFC
:10244000090408431A494861194840384068012185
:1024500089038843616A0843154940394860206A06
:10246000FEF7B4FCE069FEF7B1FCA069FEF7AEFC34
:102470006069FEF7ABFC2069FEF7A8FCE068FEF798
:10248000A5FCA068FEF7A2FC606813E075030000DD
:102490004C69627261726965735C7372635C6377C5
:1024A00033326C3033315F6164632E6300000000AF
:1024B00040240140FEF78AFC10BD000010B5044620
:1024C000206A00282CD0206A012829D0206A0228FE
:1024D00026D0206A032823D0206A042820D0206A2E
:1024E00005281DD0206A06281AD0206A072817D090
:1024F000206A082814D0206A092811D0206A0A28E6
:102500000ED0206A0B280BD0206A0C2808D0206A35
:102510000D2805D0206A0E2802D0206A0F2800D18D
:1025200003E02B492BA002F029FE2068002821D0CF
:1025300001210904206888421CD049002068884293
:1025400018D0032109042068884213D0012189048E
:10255000206888420ED0052109042068884209D0ED
:10256000032149042068884204D007210904206817
:10257000884200D104E01649491C16A002F0FEFD75
:10258000606A002804D001218903606A884200D172
:1025900004E09F2189000FA002F0F0FD216A20686D
:1025A000084314490969144A114008431149086154
:1025B000104840384068012189038843616A084314
:1025C0000C4940394860206AFEF700FC10BD00004D
:1025D0007A0200004C69627261726965735C7372A1
:1025E000635C637733326C3033315F6164632E63D5
:1025F0000000000040240140F0FFF8FF70477047E2
:1026000010B500F001F810BD10B501218C4800F0A4
:10261000B1F901287ED10121894800F035F98948B6
:102620000078012877D188480068022874D90020F2
:102630008549086085480078002806D0012831D0F7
:10264000022852D003282CD17FE080480078401C1B
:102650007E490870002240217D4801F076F8012271
:1026600080217B4801F071F800207A4908807A487F
:102670000088FF302D3079490880764801887848F5
:1026800001F0B0F975480188754801F0D1F90121D0
:10269000734801F027F90020724908700120FEF705
:1026A000E7FB73E069480078401C68490870002225
:1026B0004021674801F049F800228021644801F078
:1026C00044F8002063490880644908806148018813
:1026D000634801F087F961480188614801F0A8F971
:1026E00000215F4801F0FEF850E058480078401C97
:1026F0005649087001224021554801F026F8002271
:102700008021534801F021F853480088FF302D30D4
:10271000504902E089E03FE039E0088000204F495D
:1027200008804C4801884E4801F05CF94B4801880C
:102730004B4801F07DF90121494801F0D3F801200F
:1027400048490870FEF794FB20E000203F490870DC
:10275000002240213E4800F0F8FF002280213C4842
:1027600000F0F3FF00203B4908803C4908803948CD
:1027700001883B4801F036F938480188384801F0B3
:1027800057F90021364801F0ADF800BF04E02E48AB
:102790000068401C2C4908603348007801284ED15D
:1027A000324800680A2845D90020304908600821CD
:1027B0002F4800F0C1FF002805D12E480088401C9A
:1027C0002C4908801FE02B480088C8281BDA00200D
:1027D0002849088025490860234908702648007860
:1027E000002808D1012024490870002023490870DE
:1027F00002F042FB07E000201F49087002201F4939
:10280000087002F071FD1B480088C82817DB002003
:10281000184908801549086013490870184800785D
:10282000002803D101201649087008E0002014494F
:10283000087004E00D480068401C0C49086010BD99
:102840000048014041000020080000200000002056
:10285000001400481400002018000020160000207A
:10286000001300401A0000200C000020040000208B
:10287000000400480E00002011000020420000204B
:10288000100000207047704770B504460D460F4891
:10289000844205D00E48844202D00E48844200D1C2
:1028A00004E0FF215F310CA002F068FC12482840D0
:1028B000002802D1002D00D004E0FF21603106A0E5
:1028C00002F05CFCE069A843E06170BD0048014093
:1028D00000490140004A01404C69627261726965B9
:1028E000735C7372635C637733326C3033315F6275
:1028F00074696D2E63000000F8FF000070B5044697
:102900000D461148844205D01048844202D0104838
:10291000844200D103E064210EA002F02FFC002DC0
:1029200001D0012D00D103E065210AA002F026FCB0
:10293000002D04D0206901210843206103E02069B3
:1029400040084000206170BD00480140004901403E
:10295000004A01404C69627261726965735C73720E
:10296000635C637733326C3033315F6274696D2E30
:102970006300000070B504460D461148844205D03E
:102980001048844202D01048844200D104E0FF2164
:102990004E310EA002F0F2FB14482840002802D16C
:1029A000002D00D004E0FF214F3108A002F0E6FB2B
:1029B000A0692840002801D0012070BD0020FCE75C
:1029C0000048014000490140004A01404C696272E0
:1029D00061726965735C7372635C637733326C3008
:1029E00033315F6274696D2E63000000F8FF0000F0
:1029F00070B504460D4616461548844205D0154864
:102A0000844202D01448844200D103E0732113A011
:102A100002F0B4FB002E01D0012E00D103E074219E
:102A20000EA002F0ABFB15482840002802D1002D73
:102A300000D003E0752109A002F0A0FB002E03D016
:102A400060692843606102E06069A843606170BD0D
:102A50000048014000490140004A01404C6962724F
:102A600061726965735C7372635C637733326C3077
:102A700033315F6274696D2E63000000F8FF00005F
:102A800070B505460C461A48854205D0194885425E
:102A900002D01948854200D103E0472117A002F077
:102AA0006DFB6088002808D06088022805D0608807
:102AB000042802D06088062800D103E048210FA036
:102AC00002F05CFB20881549884200DC03E04921C4
:102AD0000AA002F053FB6088E18808432969262296
:102AE000914308432861A08828602088686270BDEF
:102AF0000048014000490140004A01404C696272AF
:102B000061726965735C7372635C637733326C30D6
:102B100033315F6274696D2E63000000FFFF0000B7
:102B20001CB5002168464180C18009498180172178
:102B3000018069460748FFF7A3FF01210548FFF719
:102B4000A3FE012211460348FFF752FF1CBD0000FF
:102B5000E703000000480140F0B585B0002008E020
:102B6000C100A44A515A09B24200A34B9952411CD8
:102B700088B28028F4DB00F039FD00F045FC9E4A65
:102B80000021515E49439D4B00229A5E52438818B2
:102B9000FDF768FD064602F083FB0446FDF7BCFD29
:102BA00097490860002008E0C100964A515A09B2CE
:102BB0004200914B9952411C88B28028F4DB00F00E
:102BC00015FD00F021FC8C4A0221515E49438B4BDC
:102BD00002229A5E52438818FDF744FD064602F031
:102BE0005FFB0446FDF798FD87490860844801684B
:102BF00085480068FDF754FB8449086000200AE01E
:102C00004100491C89007B4A515A09B242007A4B63
:102C10009952411C88B28028F2DB00F0E7FC00F0FA
:102C2000F3FB754A0021515E4943744B00229A5EC2
:102C300052438818FDF716FD064602F031FB0446A4
:102C4000FDF76AFD7249086000200AE04100491C56
:102C500089006C4A515A09B24200674B9952411C93
:102C600088B28028F2DB00F0C1FC00F0CDFB624AA4
:102C70000221515E4943614B02229A5E52438818F9
:102C8000FDF7F0FC044602F00BFB0646FDF744FDA1
:102C9000604908605E4801685E480068FDF700FB17
:102CA0005D490860594801685B480068FDF7F8FA1B
:102CB0005A49086008460068FDF71AFD04460022DC
:102CC000574BFDF7DDFB06460022564BFDF7D0FBC8
:102CD00003910290FDF720FD534908605349524883
:102CE0000068FDF735FD02D250484F490860504951
:102CF0004D480068FDF736FD02D24D484A4908604C
:102D000001204C49087000204B4908704B4908606D
:102D100000BF2AE04100491C89003A4A515A89B251
:102D20007D22D20091421EDD4100491C424A1278A8
:102D3000521E434B9A5C891A0D2914DD4100491C2F
:102D40008900304A515A3C4A127852003D4B995200
:102D50004100491C3A4A384B1B78D154364909780E
:102D6000491C354A1170411C88B28028D2DB324898
:102D70000078012836DD002421E0314A611C515CD5
:102D8000125D881AFDF76EFC054600222E4BFDF7FA
:102D900077FB02460B460191009000202B49FDF77E
:102DA000D7FB03910290FDF7B7FC07462348016863
:102DB0003846FDF7DFF921490860601C84B21E48DF
:102DC0000078401EA042D8DC1B490978481EFDF758
:102DD00037FC0446214619480068FDF761FA174997
:102DE000086002E0002015490860012018490870B9
:102DF00005B0F0BD5C040020DC0D0020DC0E0020DE
:102E0000200000205C08002024000020300000206A
:102E1000280000202C000020340000203800002072
:102E20000000394000805B403C0000200000A042D0
:102E30000000C842400000201B0000201C000020B1
:102E40005C0C0020DC0C002000804340004CED4076
:102E50004100002010B500F001F810BD10B50120B0
:102E600000F05CF9002813D0012000F07FF8002169
:102E7000114800F0A3F811480F4920394862104862
:102E8000C86201210C4800F099F800200D49087033
:102E9000022000F043F900280CD0022000F066F870
:102EA000054800F00FF90446214607A002F074F827
:102EB00000BFFEE710BD000020000240000101003D
:102EC0005C04002041000020444D413120457272D5
:102ED0006F7221444D41205354415455533A256457
:102EE000200D0A0010B500F001F810BD10B510203B
:102EF00000F014F900280FD0102000F037F800215E
:102F00000F4800F05BF80F480D4948600E48C86054
:102F100001210B4800F052F8202000F0FFF80028B3
:102F20000CD0202000F022F8054800F0CBF8044631
:102F3000214606A002F030F800BFFEE710BD0000F9
:102F400040000240000101005C080020444D413275
:102F5000204572726F7221444D41205354415455A3
:102F6000533A2564200D0A007047000010B504464E
:102F700008482040002802D1002C00D003E0E921BD
:102F800005A002F0FBF80C484068A0430A494860DD
:102F900010BD0000CCCCFCFF4C69627261726965A7
:102FA000735C7372635C637733326C3033315F64AC
:102FB0006D612E63000000000000024070B5044601
:102FC0000D46144884420BD012482030844207D06A
:102FD00010484030844203D00E486030844200D113
:102FE00003E08B210CA002F0C9F8002D01D0012DC7
:102FF00000D103E08C2108A002F0C0F8002D04D01D
:10300000206801210843206003E020684008400058
:10301000206070BD200002404C6962726172696577
:10302000735C7372635C637733326C3033315F642B
:103030006D612E630000000000B589B0082000908B
:103040000120049028200590FF2001300690802068
:103050000190174807900020029016480890202001
:1030600003906946144800F0E1F81148001D0790EC
:103070001248089069461048203000F0D7F81048F0
:10308000FFF774FF012206210B4800F085F80121AB
:103090000948FFF793FF012206210748203000F07E
:1030A0007BF8012104482030FFF788FF09B000BDFC
:1030B000202401405C040020200002405C08002025
:1030C0003333030010B504460B4884420BD00A4842
:1030D0002030844207D008484030844203D006485C
:1030E0006030844200D103E0FA2104A002F046F8E7
:1030F00020680004000E10BD200002404C6962727E
:1031000061726965735C7372635C637733326C30D0
:1031100033315F646D612E630000000010B504461A
:10312000012C18D0022C16D0102C14D0202C12D028
:10313000FF20013084420ED0400084420BD0C000FA
:10314000844208D04000844205D0C000844202D0AE
:103150004000844200D103E0D32106A002F00EF823
:103160000C4800682040002801D0012010BD00203C
:10317000FCE700004C69627261726965735C73728E
:10318000635C637733326C3033315F646D612E631F
:10319000000000000000024070B504460D461646CF
:1031A000194884420BD018482030844207D0164872
:1031B0004030844203D014486030844200D103E0A0
:1031C000B32112A001F0DAFF062128468843002827
:1031D00002D1002D00D003E0B4210CA001F0CEFFFD
:1031E000002E01D0012E00D103E0B52107A001F08F
:1031F000C5FF002E03D020682843206002E020682D
:10320000A843206070BD0000200002404C6962723B
:1032100061726965735C7372635C637733326C30BF
:1032200033315F646D612E630000000070B50546A8
:103230000C466B4885420BD069482030854207D048
:1032400067484030854203D065486030854200D1F0
:1032500003E0432163A001F091FF2068002802D021
:103260002068082800D103E044215EA001F086FF19
:103270006068002805D06068402802D06068802817
:1032800000D103E0452157A001F078FFA068102885
:1032900002D0A068002800D103E0462151A001F02F
:1032A0006DFFE068202802D0E068002800D103E02C
:1032B00047214CA001F062FF2069002802D020695C
:1032C000012800D103E0492146A001F057FF6069C1
:1032D000002856D06069042853D06069082850D06F
:1032E00060690C284DD0606910284AD060691428A4
:1032F00047D06069182844D060691C2841D06069B3
:1033000028283ED060692C283BD06069302838D00E
:103310006069342835D06069382832D060693C282B
:103320002FD0606940282CD06069442829D060697A
:10333000482826D060694C2823D06069502820D0C6
:10334000606954281DD0606958281AD060695C28CB
:1033500017D06069602814D06069642811D0606952
:1033600068280ED060696C280BD06069702808D07E
:103370006069742805D06069782802D06069C8281F
:1033800000D103E04A2117A001F0F8FEA06900284F
:1033900004D01C49A069884200D803E04C2111A048
:1033A00001F0ECFE2868F821884321680843616831
:1033B0000843A1680843E168084328602869000AB7
:1033C0000002216908436169084328610121090459
:1033D000A06908436860E069A860206AE86070BD81
:1033E000200002404C69627261726965735C73729D
:1033F000635C637733326C3033315F646D612E63AD
:1034000000000000FFFF0000F0B585B00725019522
:10341000802500950123A9E001215D1E0E46AE40E6
:10342000F1B200249CE00122019DEE1A1546B54040
:10343000EAB215466543EAB220468BE045004E4E9F
:10344000755F049545004D4E755F039545186D00F9
:10345000494E755F029545186D00755F484EB6562A
:103460007543ED114600444FBE5BAE1945186D0023
:10347000424F7D5F434FBF567D43ED1175192DB20D
:1034800046003D4FBD5345186D003E46755F3D4EAD
:10349000B6567543ED114600384FBE5B761B451896
:1034A0006D007D5F364FBF567D43ED1175192DB20E
:1034B0004600324FBD5345186D002F4E755F304E9C
:1034C000B6567543EE11049DAE1B45186D007D5F29
:1034D0002C4FBF567D43ED11751B2DB2461876005B
:1034E000254FBD5345186D00244E755F244EB656CA
:1034F0007543EE11234DAF56029D6F43FF11039D9F
:103500007D19AD1B2DB2461876001C4FBD534500EA
:10351000194E755F6D104600174FBD534500174E8D
:10352000755F6D104600154FBD5345186D00124E66
:10353000755F6D10461876000F4FBD5345186D002E
:103540000E4E755F6D10461876000C4FBD534D0042
:103550002D18E8B2009DA84200DA6FE7651CECB2B6
:103560004D1EA54200DB5EE75D1CEBB2019DAB4248
:1035700000DC51E705B0F0BDDC0D0020DC0E0020C2
:1035800054030020D40200207047000010B5044608
:10359000002C03D0012C01D0022C00D103E03421F7
:1035A00007A001F0EBFD0E48006B02218843801C50
:1035B0000B4908630B4820430B49486010BD0000CD
:1035C0004C69627261726965735C7372635C637784
:1035D00033326C3033315F666C6173682E63000088
:1035E0000000014000005A5A00200240002005E07F
:1035F00000214200034B9952411CC8B28028F7DBDE
:1036000070470000DC0E002008B5009000BF009954
:103610004A1E00920029FAD108BD704710B500F08B
:10362000BDFA10BD704770471722D2068218002AD3
:103630000AD001239B02D21A0DD0D21A12D0032332
:103640009B02D21A1DD114E03A4A126B10231A437E
:10365000384B1A6316E0374A126B20231A43354B56
:103660001A630FE0334A126B40231A43314B1A633B
:1036700008E0304A126B01235B021A432D4B1A6398
:1036800000E000BF00BF4A68002A04D1C2690B688D
:103690001A43C2614DE0C2690B689A43C2611023AC
:1036A0004A681A40102A34D102680B681A43026033
:1036B0004A68112A07D102690B681A430261C2687D
:1036C0000B689A43C2604A68122A07D1C2680B6825
:1036D0001A43C26002690B689A430261426A0B682E
:1036E0009A434262826A0B689A43826281238A68A3
:1036F0001A40812A03D1426A0B681A43426282232C
:103700008A681A40822A14D1826A0B681A4382623C
:103710000FE002680B689A4302604A68202A04D1CD
:1037200042680B689A43426003E042680B681A43A0
:1037300042607047000001400246106D08400028BA
:1037400001D0012070470020FCE7012A01D1C165AA
:1037500000E08165704700000EB5802002902020B7
:1037600001908020009069465B48FFF75DFF802054
:10377000029020200190C000009069465648FFF753
:1037800053FF82200290102001900820009069468B
:103790005148FFF749FF0820C0434F498863802004
:1037A000029020200190FF207D3000906946092082
:1037B000C006FFF739FF80200290202001904020B2
:1037C000009069464548FFF72FFF80200290202097
:1037D00001908020009069464048FFF725FF3E4851
:1037E00040690F21090688430121090640183A491A
:1037F00048610846C0690121890388433649C86188
:103800000846006801218903884333490860084657
:1038100040680121890388432F4948600846406970
:1038200000010009890440182B4948610846C06915
:10383000490188432849C86108460068490188430E
:103840002549086008464068490188432249486084
:103850000920C006C06940084000401C0921C90673
:10386000C8610846C06902218843801C0921C90635
:10387000C8611948806900090001401C1649886127
:103880000846C06940084000C86108460068400812
:103890004000401C08600846006940084000401C89
:1038A000086108468069F021884310300A49886120
:1038B0000846C069022188430749C8610846006874
:1038C0000221884304490860084640680221884371
:1038D000014948600EBD0000000400480014004883
:1038E0007047704770B504460D460E48844202D0BA
:1038F0000D48844200D103E093210CA001F03EFC6E
:10390000002D01D0012D00D103E0942107A001F08A
:1039100035FC206940084000E907C90F08432061D1
:1039200070BD000000070040001300404C69627247
:1039300061726965735C7372635C637733326C3098
:1039400033315F6774696D2E6300000070B5064601
:103950000D4614461948864202D01948864200D1C5
:1039600003E0772117A001F009FC002D05D0042DFC
:1039700003D0082D01D00C2D00D103E0782111A037
:1039800001F0FCFB082C0BD0092C09D00A2C07D025
:103990000B2C05D00D2C03D00E2C01D00F2C00D1F8
:1039A00003E0792107A001F0E9FBB0680F21A940ED
:1039B00088432146A9400843B06070BD000700401D
:1039C000001300404C69627261726965735C7372C6
:1039D000635C637733326C3033315F6774696D2EAB
:1039E0006300000070B504460D460748844202D0CB
:1039F0000648844200D104E0FF21073104A001F011
:103A0000BDFBA8B2206270BD00070040001300405B
:103A10004C69627261726965735C7372635C63772F
:103A200033326C3033315F6774696D2E6300000090
:103A300070B504460D460748844202D006488442C9
:103A400000D104E0FF210E3104A001F097FBA8B2E1
:103A5000606270BD00070040001300404C69627254
:103A600061726965735C7372635C637733326C3067
:103A700033315F6774696D2E6300000070B50546D1
:103A80000C462248854202D02148854200D103E0FD
:103A9000422120A001F072FB2068002808D0206895
:103AA000022805D02068042802D02068062800D10A
:103AB00003E0432117A001F061FB6068002802D0F9
:103AC0006068202800D103E0442112A001F056FBD9
:103AD0001849E068884200D803E045210DA001F0B4
:103AE0004DFB216860680843217A002901D04021FC
:103AF00000E00021084329696622914308432861B8
:103B0000E06868632069286070BD0000000700401D
:103B1000001300404C69627261726965735C737274
:103B2000635C637733326C3033315F6774696D2E59
:103B300063000000FFFF000000B585B0002000908A
:103B400001901048049017200390002069460872E5
:103B50000D48FFF793FF0E2200210B48FFF7F6FEFA
:103B60000E2204210848FFF7F1FE084801880648A4
:103B7000FFF738FF064801880348FFF759FF05B0F3
:103B800000BD0000E7030000001300401400002007
:103B90001600002000BFFEE7704700000648406B9B
:103BA0000007C00F002806D00820C04302498863E0
:103BB0000120024908707047000400480C000020F2
:103BC000F0B504460D4616461F463E4800780028CC
:103BD0001BD12A2000F07CFD21461A3188B200F06A
:103BE000D7FC31461A3188B200F0D2FC2B2000F00D
:103BF0006FFD691C88B200F0CBFC791C88B200F024
:103C0000C7FC2C2000F064FD5AE02E480078012803
:103C10001BD12A2000F05CFD21461A3188B200F049
:103C2000B7FC31461A3188B200F0B2FC2B2000F00C
:103C30004FFD691C88B200F0ABFC791C88B200F023
:103C4000A7FC2C2000F044FD3AE01E480078022832
:103C50001BD12A2000F03CFD611C88B200F098FCCA
:103C6000711C88B200F094FC2B2000F031FD294635
:103C70001A3188B200F08CFC39461A3188B200F053
:103C800087FC2C2000F024FD1AE02A2000F020FD03
:103C9000611C88B200F07CFC711C88B200F078FCDA
:103CA0002B2000F015FD29461A3188B200F070FC77
:103CB00039461A3188B200F06BFC2C2000F008FD68
:103CC000F0BD00004200002070B504460D461646C7
:103CD0002B46224629462046FFF772FF304600F069
:103CE00057FC70BDFEB504460D4616461F460195AD
:103CF0000094781E83B2701E82B229462046FFF7D8
:103D00005FFF01950FE0009406E0089800F040FC8A
:103D10000098401C80B200900098B042F5DB0198FA
:103D2000401C80B201900198B842ECDBFEBD00005F
:103D30000EB50948006B102108430749086380202D
:103D4000029020200190FF203D300090694609201C
:103D5000C006FFF769FC0EBD0000014010B5FFF77B
:103D6000E7FF0820944988610120FFF74DFC0820F7
:103D70009149C861112000F0ABFCB12000F0A8FC13
:103D8000052000F09EFC3C2000F09BFC3C2000F055
:103D900098FCB22000F09CFC052000F092FC3C2036
:103DA00000F08FFC3C2000F08CFCB32000F090FC75
:103DB000052000F086FC3C2000F083FC3C2000F055
:103DC00080FC052000F07DFC3C2000F07AFC3C20CB
:103DD00000F077FCB42000F07BFC032000F071FCC5
:103DE000C02000F075FCAB2000F06BFC0B2000F055
:103DF00068FC042000F065FCC12000F069FCC520CF
:103E000000F05FFCC22000F063FC0D2000F059FCC4
:103E1000002000F056FCC32000F05AFC8D2000F07A
:103E200050FC6A2000F04DFCC42000F051FC8D20B5
:103E300000F047FCEE2000F044FCC52000F048FCF8
:103E40000F2000F03EFCE02000F042FC072000F0D4
:103E500038FC0E2000F035FC082000F032FC072072
:103E600000F02FFC102000F02CFC072000F029FCB3
:103E7000022000F026FC072000F023FC092000F0BF
:103E800020FC0F2000F01DFC252000F01AFC36203D
:103E900000F017FC002000F014FC082000F011FCDA
:103EA000042000F00EFC102000F00BFCE12000F0DC
:103EB0000FFC0A2000F005FC0D2000F002FC082099
:103EC00000F0FFFB072000F0FCFB0F2000F0F9FBE7
:103ED000072000F0F6FB022000F0F3FB072000F0C3
:103EE000F0FB092000F0EDFB0F2000F0EAFB25209D
:103EF00000F0E7FB352000F0E4FB002000F0E1FBE0
:103F0000092000F0DEFB042000F0DBFB102000F0B5
:103F1000D8FBFC2000F0DCFB802000F0D2FB3A2034
:103F200000F0D6FB052000F0CCFB362000F0D0FBE3
:103F300022480078002803D1082000F0C2FB12E0DC
:103F40001E480078012803D1C82000F0BAFB0AE01F
:103F50001A480078022803D1782000F0B2FB02E072
:103F6000A82000F0AEFB212000F0B2FB292000F0D9
:103F7000AFFB2A2000F0ACFB002000F0A2FB1A20CF
:103F800000F09FFB002000F09CFB692000F099FBF3
:103F90002B2000F09DFB002000F093FB012000F09F
:103FA00090FB002000F08DFBA02000F08AFB2C206D
:103FB00000F08EFB10BD00004000004842000020D1
:103FC000F7B586B005460E460295382418200490B1
:103FD00000952046E217520F1218D2102146E3171F
:103FE0005B0F5B18DB10DB00E31A01D0012300E05C
:103FF0000023D218049B5A4392B2019204983018BD
:10400000401E83B22819401E82B231462846FFF76F
:10401000D7FD002731E01B48C05D059000200390CC
:1040200025E001200399884005990840002810D018
:104030000898022808D102984000401B81B2124A19
:104040003046FFF741FE04E00F4A31462846FFF7AD
:104050003BFE681C85B20098281AA04203D1009D3F
:10406000701C86B206E00398401CC0B2039003980F
:104070000828D6DB00BF781C87B201988742CADBCC
:1040800009B0F0BDEC530000E0FF0000F3B587B0CD
:104090000898012802D1A026502501E05026A0252D
:1040A00000242CE0A200079988581749FCF7BBF8B8
:1040B0000190FCF71DFB154A154B03910290FCF78C
:1040C00047FA05910490FCF7F5FA87B200200090BA
:1040D000A81C83B2A01C82B2E81B81B22046FFF765
:1040E00001FE3F2040010090A81C83B2A01C82B2B8
:1040F000E81B81B22046FFF7F5FD601C84B2B44294
:10410000D0DB09B0F0BD00000000B841666666660D
:1041100066660A40FFB585B007460F9D00200290F5
:1041200000972846E90F0918C9050C0E1E2D01D16C
:10413000132403E007982038C0B207902046E21706
:10414000520F1218D2102146E3175B0F5B18DB10D9
:10415000DB00E31A01D0012300E00023D2186A43F8
:1041600092B2019206984019401E83B23819401E3F
:1041700082B238460699FFF723FD002662E0182D2B
:1041800007D130210798484331494018805D049099
:1041900015E0102D06D1079800012E494018805DCA
:1041A00004900CE01E2D08D10798401C5A2148436A
:1041B00080192949085C049001E009B0F0BD002095
:1041C000039039E0109800281AD101200399884003
:1041D00004990840002803D0089800F0D9F902E0BB
:1041E0000E9800F0D5F90298401CC0B2029021460A
:1041F0000298FBF799FF00291AD1002002901EE0D7
:1042000001200399884004990840002804D03846CA
:10421000089A0699FFF758FD781C87B20098381A5B
:10422000A04205D1009F0698401C80B2069006E08F
:104230000398401CC0B2039003980828C2DB00BF5B
:10424000701C86B20198864299DB00BFB5E700007A
:10425000845A000094540000546C0000FFB589B0EB
:104260000746139E0225002000900A98103083B262
:104270003846283082B238460A99FFF733FD304677
:10428000F10F0918C905090E07912F490B98FBF783
:10429000CAFF0490FCF7FAF980B2069064210698F0
:1042A000FBF742FF80B205900598002801D1681CF9
:1042B000C5B207E00A210598FBF736FF80B20590EA
:1042C000681CC5B205980028F4DC002437E0281BE0
:1042D000401EC1B20A2000F0D5FF014603900698A7
:1042E000FBF70CFF0A210490FBF708FF0891A81EBA
:1042F000A04212D10020009001960290A81E0799BA
:104300004843C01980B2114B2E2204900A99FFF73E
:1043100001FF601CC4B2681CC5B200200090019669
:10432000029008983030C2B207986043C01980B23A
:10433000064B04900A99FFF7EDFE601CC4B2AC4234
:10434000C5DB0DB0F0BD00000000C842FFFF00005B
:10435000FFB589B005461446032008900020079059
:104360001E200590132006903F204001049000205D
:1043700000900A981E3083B22846303082B2393815
:1043800080B203900A99FFF7ADFC0A212046FBF7A3
:10439000CBFE002803D128461C3885B212E00A2142
:1043A0002046FBF7C1FE002809D064212046FBF718
:1043B000BBFE002803D12846123885B202E0284609
:1043C000093885B20C9801280CD15D2C04DB602CD7
:1043D00002DA2648049013E05D2C11DA1F20C00297
:1043E00004900DE0692C01DA362C03DA1F20C0029C
:1043F000049005E0692C03DA5A2C01DB1B48049079
:1044000000262EE00898801B401EC1B20A2000F052
:1044100039FF014602902046FBF770FE0A21039007
:10442000FBF76CFE0F460798002808D10898401E3D
:10443000B04204DD002F00D111E0012007900021DF
:10444000059800910291019006987043401980B23E
:1044500003903A46049B0A99FFF75CFE00BF701C6C
:10446000C6B208988642CDDB0DB0F0BD07FC000057
:10447000FFB583B0064614460C9F0D9D10E00E98C4
:1044800000970195029022783046069B0499FFF729
:1044900041FE2846E90F0918491089198EB2641C9B
:1044A00020780028EBD107B0F0BDFFB587B00546F6
:1044B0000E461C463F2040010390142C02DC1F20B6
:1044C000C0020390099802282FD1B01D87B20D3089
:1044D00080B205902821614308466421FBF724FE41
:1044E00029460A39081A80B20690084680B204901C
:1044F000642C4BDC002C49DD0020009028462E382F
:1045000081B2781E80B20290069B059AFFF7EAFB03
:10451000039800900498401C83B2781E80B20290E9
:10452000059A0699FFF7DEFB30E028460B3087B28C
:104530002821614308466421FBF7F6FD29460B312B
:10454000401880B20590701D80B20690304613303E
:1045500080B20490642C19DC002C17DD0020009040
:104560000498401C83B228462E3082B206990598E2
:10457000FFF7B8FB039800900498401C83B2781EA4
:1045800080B20290059A0699FFF7ACFB0BB0F0BD24
:1045900010B50446201200F005F8E0B200F002F871
:1045A00010BD0000FF2201320F4B9A61002113E081
:1045B00020220D4B9A6180220240002A02D0102254
:1045C000DA6102E01022084B9A612022064BDA6180
:1045D0004206100E4A1CD1B20829E9DBFF22013243
:1045E000014BDA6170470000400000487CB504468A
:1045F000002C2CD12C480068FCF748F885B2012328
:104600002A461C210920FFF7A3FE28480068FCF772
:104610003DF885B202232A461C217520FFF798FE3B
:1046200010200021224B009101902248282102688D
:104630004020FFF713FE2048038801220021382084
:10464000FFF733FF01211D48FFF720FD2BE016483F
:104650000068FCF71BF885B201232A4618210920BF
:10466000FFF776FE11480068FCF710F885B20223C8
:104670002A464E210920FFF76BFE102000210C4B2B
:10468000009101900B48722102682820FFF7E6FD97
:104690000948038802223A217120FFF706FF022110
:1046A0000648FFF7F3FC7CBD3C0000201C00002006
:1046B000FFFF000034000020120000204400002012
:1046C000704710B504462046FFF76CFF10BD000090
:1046D00010B504460420044988612046FFF762FFB4
:1046E00004200149C86110BD400000487047000027
:1046F000C206D20E01219140014A116070470000AC
:1047000000E100E010B5002819DA1A4A03071B0F70
:10471000083B9B089B00D2588307DC0EFF23A34075
:104720009A438B071B0E8407E40EA3401A43114BD8
:104730000407240F083CA408A4001A5118E00E4AEC
:1047400003231B02D21883089B00D2588307DC0E78
:10475000FF23A3409A438B071B0E8407E40EA3405C
:104760001A43054B032424021B198408A4001A5180
:1047700010BD00001CED00E000E100E010B572B6D5
:1047800000211420FFF7BEFF03210520FFF7BAFF29
:1047900000210620FFF7B6FF01210920FFF7B2FF35
:1047A00001210A20FFF7AEFF1420FFF7A1FF05202B
:1047B000FFF79EFF0620FFF79BFF0920FFF798FFFA
:1047C0000A20FFF795FF62B610BD704710B504468A
:1047D000002C0DD0202C0BD0402C09D0602C07D001
:1047E000802C05D0A02C03D0C02C01D0E02C00D10F
:1047F00003E0332106A000F0C1FC0D4800680D491C
:1048000008400D49401820430949086010BD0000C8
:104810004C69627261726965735C7372635C637721
:1048200033326C3033315F7263632E6300000000FB
:10483000000001401FFF000000005A5A10B5044656
:10484000062C0FD0082C0DD0092C0BD0052C09D02C
:104850000B2C07D00C2C05D00D2C03D00E2C01D026
:104860000F2C00D104E0FF210B310CA000F086FCDE
:10487000E0021249098808431149886108464068E6
:10488000104908430E49486000BF0D488069012166
:10489000C90308408842F8D110BD00004C6962721B
:1048A00061726965735C7372635C637733326C3019
:1048B00033315F7263632E6300000000000A100052
:1048C0000000014001005A5A10B50446002C0DD0DA
:1048D000202C0BD0402C09D0602C07D0802C05D088
:1048E000A02C03D0C02C01D0E02C00D103E03D214E
:1048F00006A000F043FC0D4800680D4908400D4932
:10490000401820430949086010BD00004C696272DC
:1049100061726965735C7372635C637733326C30A8
:1049200033315F7263632E630000000000000140BA
:10493000E7FF000000005A5A014908607047000074
:10494000D002002010B52348006B02210843214902
:1049500008630020FEF71AFE0820FFF76FFF002013
:10496000FFF734FF0020FFF7AFFF1B48FFF7E4FF1E
:104970001848006B10210843164908630846006B6D
:1049800020210843134908630846006B4915084372
:10499000104908630846406B891408430D49486371
:1049A0000846806B042108430A4988630846406B27
:1049B00004210843074948630846006B0121084366
:1049C000044908630846806B8021084301498863D5
:1049D00010BD00000000014000366E0170477047B6
:1049E000704710B5FFF7AEFFFEF7B6FEFEF798F87A
:1049F000FFF7A2F8FFF7C2FE00F076FCFCF72EF8F6
:104A000000F03EF8FEF718FB002240210920C00606
:104A1000FEF79BFE10BD00000348006803490978BB
:104A20004018014908607047C4020020CC020020F1
:104A3000014802490860704700127A00D002002045
:104A400000B5FFF7F5FF0B4909884805400D0A49F5
:104A50008969C90AC9020143074A91610549498820
:104A60008805800D1146096A890A8902014311628D
:104A700000BD0000000A10000000014070477047B0
:104A800000B587B04B20C00101900021684601812C
:104A900041810748039068460182418281820183F7
:104AA0000321C18201A9034800F046F807B000BD08
:104AB00000366E01004400407047000070B50446A7
:104AC0000D461248844205D01148844202D0114854
:104AD000844200D104E0FF2188310FA000F04EFB9A
:104AE0000F2000032840002802D1002D00D004E050
:104AF000FF21893108A000F041FBE069284000282F
:104B000001D0012070BD0020FCE70000003801400A
:104B100000440040004800404C696272617269655F
:104B2000735C7372635C637733326C3033315F75FF
:104B30006172742E63000000F0B589B005460C4622
:104B40000026002008900027A248854205D0A248F0
:104B5000854202D0A148854200D103E08921A0A06E
:104B600000F00CFB2068002804D0A549206888428A
:104B700000D803E08A219AA000F000FBA08800285A
:104B80000DD0A08801214902884208D0A0884900A0
:104B9000884204D0A08803214902884200D103E062
:104BA0008B218FA000F0EAFAE088002809D0E08885
:104BB00001214902884204D0E08803210902884289
:104BC00000D103E08C2186A000F0D8FAA06800286C
:104BD00004D08C49A068884200D803E08D2180A0D1
:104BE00000F0CCFAA089002804D0A089FF2101316F
:104BF000884200D103E08E2179A000F0BFFAE0895D
:104C0000002805D0E089202802D0E089102800D1B2
:104C100003E08F2172A000F0B1FA208A002808D0AA
:104C2000208A082805D0208A0C2802D0208A04284F
:104C300000D103E090216AA000F0A0FA608A7249D6
:104C40000840002803D1608A002800D003E09121A9
:104C500063A000F093FAA08A002808D0A08A082850
:104C600005D0A08A042802D0A08A0C2800D103E035
:104C700092215BA000F082FAA088A1890843E18913
:104C80000843218A0843618A084329685F4A114022
:104C900008432860E088A18A08436968C32292001B
:104CA000914308436860A08800282FD1216808013B
:104CB000FBF7D1FC0790A068FBF7CDFC06900799A5
:104CC000FBF7EEFA07463846FBF7E0FC86B23046C3
:104CD000FBF7C1FC39460190FBF7A1FA8321C90516
:104CE0000290FBF7A0FA0390FBF702FD0022484B6D
:104CF00005910490FBF712FB07910690FBF7DAFC95
:104D000080B20890EE600898286160E0A0880121D8
:104D1000490288421BD12168C800FBF79CFC029025
:104D2000A068FBF798FC01900299FBF7B9FA039091
:104D3000FBF7DEFC0022364B05910490FBF7EEFA00
:104D400007910690FBF7B6FC86B2EE603FE0A088C4
:104D50000121890288421BD121688800FBF77BFC76
:104D60000290A068FBF777FC01900299FBF798FA94
:104D70000390FBF7BDFC0022254B05910490FBF747
:104D8000CDFA07910690FBF795FC86B2EE601EE027
:104D90002068FBF760FC0290A068FBF75CFC8721B1
:104DA000C9050090FBF73FFA01900299FBF778FAEA
:104DB0000390FBF79DFC0022154B05910490FBF737
:104DC000ADFA07910690FBF775FC86B2EE6009B06C
:104DD000F0BD0000003801400044004000480040A1
:104DE0004C69627261726965735C7372635C63774C
:104DF00033326C3033315F756172742E63000000A2
:104E0000001BB700006CDC02FCFF0000C0F8FFFFD5
:104E10000000E03F70B504460D460B48844205D0C3
:104E20000A48844202D00A48844200D103E0452166
:104E300008A000F0A3F9FF2D00DC03E0462105A047
:104E400000F09CF9A56270BD0038014000440040AC
:104E5000004800404C69627261726965735C7372EC
:104E6000635C637733326C3033315F756172742EFB
:104E700063000000704770470EB5FEF76FFF00201B
:104E8000A023502201460090FEF72CFF012018219C
:104E90000022384B00920191029037A2002108466F
:104EA000FFF7E6FA012010210022324B0092019117
:104EB000029032A208212420FFF7DAFA01201821FB
:104EC00000222C4B0092019102902DA2002128205B
:104ED000FFF7CEFA012018210022264B0092019103
:104EE000029028A236210020FFF7C2FA01201021EB
:104EF0000022204B00920191029023A23E21182013
:104F0000FFF7B6FA02223A217120FFF759F8012083
:104F100010210022174B1F330092019102901BA217
:104F200072210020FFF7A4FA3F2040012A231A2211
:104F3000242100900C20FEF7D5FE3F2040012A23BB
:104F40002C22242100901E20FEF7CCFE3F204001A1
:104F500060231A225A2100900C20FEF7C3FE3F2046
:104F6000400160232C225A2100901E20FEF7BAFE39
:104F70000EBD0000E0FF0000537030003200000062
:104F8000202025005052200062706D0050492025DD
:104F90003A000000704700000FB410B503A9044B9D
:104FA000044A029800F042F810BC08BC04B018474C
:104FB00081510000540400202021020C01D0102156
:104FC0001046020A01D010460839020901D01046E5
:104FD000091F820801D01046891E420801D0881E90
:104FE0007047081A704730B47446641E2578641CF4
:104FF000AB4204D3635D5B00E31830BC18471D4629
:10500000F8E702E008C8121F08C1002AFAD1704769
:105010007047002001E001C1121F002AFBD1704738
:10502000014908607047000058040020FFB58DB0AA
:105030000446002506E025280AD0109A0F999047CB
:10504000641C6D1C20780028F5D1284611B0F0BDF5
:1050500000270121484A009700E00743641C237899
:105060000846203B98401042F7D120782E2817D1CF
:10507000042007436078641C2A280CD10E98641C15
:1050800002C800910E900BE000990A22514330397A
:105090004018641C00902078014630390929F3D962
:1050A00020780028D1D0642808D0692806D0752837
:1050B0001ED0109A0F9990476D1C5BE00A200E9944
:1050C000019001C90E91002802DA40422D2102E030
:1050D000390504D52B216A461172012103E0F90735
:1050E00004D02021F7E70BAE0B910DE00021FAE789
:1050F0000A200E99019001C90E91F7E70199FAF77C
:10510000FDFF3031761E31700028F7D103A8801BD7
:1051100020300190780701D5009801E0012000902F
:105120000199884201DD401A00E00020002700902C
:1051300006E002A8109AC05D0F9990476D1C7F1C75
:105140000B988742F5DB04E0109A30200F999047C6
:105150006D1C0099481E00900029F5DC05E03078B0
:10516000109A761C0F9990476D1C0199481E01906A
:105170000029F4DC641C65E7092801007047000081
:1051800070B504460D46E1B20548FFF743FE00BF87
:1051900001210348FFF792FC0028F9D0204670BD9A
:1051A00000440040FFF71DFC2D480078002805D181
:1051B00002202C49087000F097F804E000202949EB
:1051C0000870FFF759FE26480078FFF70FFA2648C7
:1051D000FEF71AFA0120254908703FE023480078BD
:1051E00001280FD122480069C007C00F002809D14B
:1051F0002049087003202049086001211C48FDF760
:105200007DFB0FE01948007800280BD11848006991
:10521000C007C00F002805D000211548FDF76EFB20
:10522000FDF79AFC15480078002806D000201349A5
:1052300008700B480078FFF7D9F911480078012869
:1052400006D1012240210920C006FEF77EFA05E0C2
:10525000002240210920C006FEF777FABEE70000D1
:105260001100002042000020801A060041000020AA
:1052700000480140000000200800002040000020FD
:105280001000002010B50246012002E003465343FF
:1052900018460B464C1EE1B2002BF7D110BD0000A2
:1052A000F8B506460C46FBF73BFB05000F4600D061
:1052B0000120014349000B484908411AC90F0DD08C
:1052C000002E01D0012100E000210C4361004908BB
:1052D000401AC00F02D10120FFF7A2FE284639462E
:1052E000F8BD00000000F07F0EB5FEF737FD00208E
:1052F0005023A02201460090FEF7F4FC0120182163
:105300000022324B00920191029031A20021084606
:10531000FFF7AEF80120102100222C4B00920191E2
:1053200002902DA208213020FFF7A2F801201821B9
:105330000022264B00920191029028A200217020A9
:10534000FFF796F8012010210022204B00920191D6
:10535000029023A208218820FFF78AF80122002169
:105360003820FEF72DFE012010210022174B1F339D
:105370000092019102901BA218213F20FFF778F8BC
:105380003F2040012E231822282100900C20FEF7F8
:10539000A9FC3F2040012E232A22282100901E2014
:1053A000FEF7A0FC3F2040012E23842228210090FC
:1053B0007720FEF797FC3F2040012E2397222821DB
:1053C00000908A20FEF78EFC0EBD0000E0FF00007A
:1053D00025537030000000003200000050520000E1
:1053E00062706D00504920253A0000000000000066
:1053F00000000000000000000000000000000000AD
:105400000000FFFFFFFFFF0000FFFFFFFFFF0000A6
:1054100003000000C0000003000000C00000030003
:105420000000C0000003000000C0000003000000F6
:10543000C0030003000000C0030003000000C0031D
:105440000003000000C0030003000000C0030003CD
:10545000000000C0030003000000C00300030000C0
:1054600000C0000003000000C0000003000000C0F6
:105470000000FFFFFFFFFF0000FFFFFFFFFF000036
:10548000000000000000000000000000000000001C
:10549000000000000000000000000000000000000C
:1054A00000000000000000080808080808080000C4
:1054B0001818000000486C241200000000000000D2
:1054C000000000000000002424247F1212127F122A
:1054D000121200000000081C2A2A0A0C1828282A88
:1054E0002A1C080800000022251515152A585454B6
:1054F000542200000000000C1212120A7625291115
:10550000916E000000060604030000000000000089
:1055100000000000004020101008080808080810CB
:10552000102040000002040808101010101010088D
:10553000080402000000000008086B1C1C6B08082F
:105540000000000000000000080808087F080808A4
:105550000800000000000000000000000000000043
:10556000060604030000000000000000FE0000002A
:10557000000000000000000000000000000000002B
:10558000060600000000804040202010100808049B
:1055900004020200000000182442424242424242F9
:1055A00024180000000000080E0808080808080871
:1055B000083E00000000003C424242202010080447
:1055C000427E00000000003C424220182040404241
:1055D000221C0000000000203028242422227E20EB
:1055E000207800000000007E0202021A264040429D
:1055F000221C0000000000382402021A2642424207
:10560000241800000000007E22221010080808085C
:10561000080800000000003C424242241824424294
:10562000423C0000000000182442424264584040BE
:10563000241C0000000000000000181800000000FA
:105640001818000000000000000000080000000022
:10565000000808040000004020100804020408109C
:10566000204000000000000000007F0000007F00DC
:105670000000000000000002040810204020100874
:10568000040200000000003C42424640201010008E
:10569000181800000000001C225A555555552D427F
:1056A000221C00000000000808181414243C2242A8
:1056B00042E700000000001F2222221E2242424236
:1056C000221F00000000007C424201010101014252
:1056D000221C00000000001F22424242424242427D
:1056E000221F00000000003F4212121E121202424E
:1056F000423F00000000003F4212121E121202023E
:10570000020700000000003C222201010171212259
:10571000221C0000000000E7424242427E42424218
:1057200042E700000000003E0808080808080808D2
:10573000083E00000000007C101010101010101027
:105740001010110F0000007722120A0E0A12122206
:105750002277000000000007020202020202020299
:10576000427F000000000077363636362A2A2A2A81
:105770002A6B0000000000E346464A4A5252526239
:10578000624700000000001C22414141414141416B
:10579000221C00000000003F424242423E02020240
:1057A000020700000000001C2241414141414D53CD
:1057B000321C60000000003F4242423E1212222290
:1057C00042C700000000007C424202041820404210
:1057D000423E00000000007F490808080808080849
:1057E000081C0000000000E742424242424242429E
:1057F000423C0000000000E7424222242414141816
:10580000080800000000006B4949494955553622F7
:1058100022220000000000E7422424181818242443
:1058200042E700000000007722221414080808084C
:10583000081C00000000007E212010100804044213
:10584000423F00000078080808080808080808080F
:10585000080878000000020204040808081010205C
:1058600020204040001E10101010101010101010BA
:1058700010101E000038440000000000000000006E
:105880000000000000000000000000000000000018
:10589000000000FF000608000000000000000000FB
:1058A00000000000000000000000003C427844427C
:1058B00042FC0000000000030202021A264242429B
:1058C000261A000000000000000000384402020216
:1058D00044380000000000604040407844424242AA
:1058E00064D80000000000000000003C427E02027C
:1058F000423C0000000000F08808087E0808080804
:10590000083E0000000000000000007C22221C0273
:105910003C42423C000000030202023A464242423C
:1059200042E700000000000C0C00000E0808080808
:10593000083E000000000030300000382020202009
:105940002020221E0000000302020272120A161218
:10595000227700000000000E080808080808080860
:10596000083E0000000000000000007F929292922A
:1059700092B70000000000000000003B4642424297
:1059800042E70000000000000000003C42424242AA
:10599000423C0000000000000000001B2642424282
:1059A000221E02070000000000000078444242422C
:1059B000447840E000000000000000774C0404043C
:1059C000041F0000000000000000007C42023C4078
:1059D000423E0000000000000008083E08080808D9
:1059E0000830000000000000000000634242424214
:1059F00062DC000000000000000000E742242414E4
:105A00000808000000000000000000EB494955555F
:105A10002222000000000000000000762418181860
:105A2000246E000000000000000000E7422424145F
:105A300018080807000000000000007E2210080877
:105A4000447E000000C020202020201020202020A4
:105A50002020C00010101010101010101010101086
:105A60001010101000060808080808100808080898
:105A7000080806000C32C200000000000000000010
:105A80000000000000000000000000000000000016
:105A90000000000000000000000000000000000006
:105AA00000000000000000000000000000000000F6
:105AB0000000000000000000000000006000600026
:105AC0006000600060006000600040002000200076
:105AD0002000000000000000600060006000000086
